:020000040040BA
:10000000C0E801205D2740005B2740005B274000DF
:100010005B2740005B2740005B274000000000009A
:10002000000000000000000000000000F907400090
:100030005B27400000000000B108400009094000B3
:100040005B2740005B2740005B2740005B274000A8
:100050005B2740005B2740005B2740005B27400098
:10006000652240005B2740000000000009044000BA
:10007000190440005B2740005B2740005B274000DD
:100080005B2740005B2740005B2740005B27400068
:100090005B2740005B2740005B2740005B27400058
:1000A0005B2740005B2740005B2740005B27400048
:1000B0005B2740005B2740005B27400000000000FA
:1000C0000000000000000000000000000000000030
:1000D0000000000000000000000000000000000020
:1000E0000000000000000000000000000000000010
:1000F0000000000000000000000000005B2740003E
:100100005B2740005B27400000000000000000006B
:1001100000000000000000000000000000000000DF
:1001200000000000000000000000000000000000CF
:1001300000000000000000000000000000000000BF
:10014000000000000000000010B5054C237833B912
:10015000044B13B10448AFF300800123237010BD9A
:10016000480A002000000000D06C40000C4B43B156
:100170000C480D4910B5AFF300800C48036823B953
:1001800010BD0A48036833B97047094B002BF7D0FC
:10019000BDE810401847064B002BF5D0184700BFAC
:1001A00000000000D06C40004C0A0020D06C4000E1
:1001B000000000002DE9F0410E46144688B90B4FAF
:1001C000DFF82C801546611B002D314403DC24EA46
:1001D000E470BDE8F0813868D8F800309847013DF8
:1001E000F1E74FF0FF30BDE8F08100BF7838012023
:1001F00070380120B1F1805F10B542641DD005D880
:1002000019B1B1F1006F0BD0426010BDB1F1405F88
:10021000FBD0B1F1605FF8D0B1F1205FF4D110BD37
:10022000016F046FD3432140194001671C46436F9F
:10023000416F0B4023404367E6E7036F13430367B7
:10024000436F416F0B4023EA0203F4E7D307416495
:100250004CBF4166016612F00A0F14BF0162416291
:10026000930704D5C0F880104161016070471307FF
:1002700048BFC0F88410F7E710B5029C41643CB158
:1002800041663BB101653AB101630161016010BD96
:100290000166F6E74165F6E74163F6E7B1F1205FF5
:1002A00073B5054614461E4627D007D8B1F1006F36
:1002B00018D0B1F1805F15D000201CE0B1F1405F93
:1002C00002D0B1F1605FF7D101F1484106F00103BE
:1002D0004A4200934A41C6F3800321462846094C0E
:1002E000A04707E028462246074B9847F0074CBF37
:1002F0006C662C66012002B070BD1A462146034B85
:100300009847F7E779024000F50140004D024000B0
:100310000164704741647047C06C7047806C7047DF
:10032000D3060ED59306C0F8B0104CBFC0F8D41059
:10033000C0F8D01053064CBFC0F8C010C0F8C410AD
:100340007047C0F8B4107047004B184721034000B5
:10035000F8B50F4B04460E4698470E4B054620460F
:100360009847054013D00C4C04F160072368B34252
:1003700008D16168294205D0E36830469847636830
:1003800025EA0305BC4202D01034002DEED1F8BDA1
:10039000190340001D034000640A00202DE9F843C2
:1003A000164E3468062C8946B446114623D8144F9D
:1003B00000265FFA86F8444510D2089AAB600134F3
:1003C000EA6044451A46C5F8009069600D4B08BFC5
:1003D000CCF8008098470020BDE8F8834FEA081E5B
:1003E00007EB0E0557F80E204A4502D16A688A428B
:1003F000E3D00136DDE70120BDE8F883D40A002010
:10040000640A0020490340000B210148014B1847B2
:10041000000E0E40510340000C210148014B1847CB
:1004200000100E40510340002DE9F0411A4B0C46DC
:100430000646154698474FF0FF310746174B3046A2
:1004400098473046164B9847E0B200F01F03012151
:10045000994063099B00002C03F160434FEA0512A9
:1004600003F56143AEBF04F1604400F00F000D4C92
:10047000C3F88010ACBF04F56144D2B2C3F8801158
:10048000AABFD2B2225484F80023196030463946FC
:10049000054BBDE8F04118471D034000150340001F
:1004A0001903400014ED00E011034000436823F4F9
:1004B000403343604368090401F44031194341600B
:1004C0007047000010B543F699230469E40708D586
:1004D00083684068074C8007236006D40B800020A7
:1004E00010BD013BF1D1012010BDC3F303401070DA
:1004F000F4E700BFD80A002030B543F69924056917
:10050000AD070CD54468A40706D5120402F4702286
:1005100011430BB141F08071C160002030BD013C3E
:10052000EDD1012030BD89000844036B1AB143F0BE
:1005300001030363704723F00103FAE789000844CD
:10054000036B1AB143F002030363704723F0020305
:10055000FAE700EB81010B6B23F0F0030B630B6BED
:100560001A430A6370475AB100EB810100200B6BFC
:1005700023F47F430B630B6B43EA02220A63704749
:100580004FF0FF30704710B500EB8101086B80B26F
:1005900008630C6B44EA036343EA02430B6310BD38
:1005A000B2EB011F30B52CBF1024082461434B0867
:1005B00003EBC202B2FBF1F2D1084D1E4FF6FE73FF
:1005C0009D4210D8082C08BF43684FEA024202F44B
:1005D000E02208BF43F4002342EA010208BF43605F
:1005E0000262002030BD012030BD0000084BC0F881
:1005F000E430002343604362836288230360242342
:1006000003604FF4807303604FF40023036070476E
:100610000041535570B50D4B0D4E05460C4698479D
:100620000023336009B9012070BD0968094B984760
:100630000028F8D1A2686368134322691343E26873
:1006400013436A68336013436B6070BDED0540006F
:10065000DC0A0020A10540004023036070471023FE
:1006600003607047816070474069704743699B072A
:1006700043BFC1F30801C1610020012070474369F5
:10068000DB0741BF8369C3F3080300200B6058BF39
:1006900001207047184B98421FD003F5A0339842B1
:1006A0001DD003F5804398421BD0A3F540439842E8
:1006B00019D003F58043984217D0A3F5A033984290
:1006C00015D003F56033984213D00C4AA3F53F438D
:1006D00090420CBF184600207047094870470948EF
:1006E00070470948704709487047094870470948EA
:1006F00070470948704700BF00C2004000420340F5
:1007000000C3004000030240004302400083014058
:1007100000C30140008300400003044000F10803CF
:1007200043604FF0FF32C3600361002382600360C7
:10073000704700230361704743684B609A688A6082
:100740009A685160996008610368013303607047DB
:100750000A68531C30B50AD103695A684A6091602F
:100760008B605960086103680133036030BD00F19C
:1007700008035C682568AA42EFD32346F9E742687C
:100780008168036991608268416851605A6890424B
:1007900004BF82685A60002202611868013818603C
:1007A0007047000005480068006880F3088862B65A
:1007B000BFF34F8FBFF36F8F00DF00BF08ED00E086
:1007C000DFF80C00016841F470010160704700001F
:1007D00088ED00E04FF0807300E90A00054B40F817
:1007E0000C3C6FF0020340F8202C40F8243C4438C5
:1007F000704700BF41084000064B19680868B0E820
:10080000F04F80F30988BFF36F8F4FF0000080F343
:1008100011887047FC360120044B4FF080521A605B
:10082000BFF34F8FBFF36F8F704700BF04ED00E041
:10083000EFF311804FF0A00181F311887047002081
:1008400008B5044B1B680133034B01D09847FEE702
:100850009847FEE7840000203108400008B5054BAA
:100860009847054A136801331360BFF34F8FBFF3F6
:100870006F8F08BD310840008400002080F311888C
:100880007047000010B5074B186810B9064B984721
:10089000FEE70138186018B9044BBDE8104018474E
:1008A00010BD00BF84000020310840007D084000DA
:1008B000EFF30980BFF36F8F124B1A681EF0100F11
:1008C00008BF20ED108A20E9F04F10604DF8043D7C
:1008D0004FF0A00080F3118800F0FCFE4FF0000004
:1008E00080F3118808BC19680868B0E8F04F1EF062
:1008F000100F08BFB0EC108A80F30988BFF36F8F28
:10090000704700BFFC36012010B5074B9847074BD6
:10091000984718B1064B4FF080521A600020054BE3
:10092000BDE81040184700BF3108400045144000A2
:1009300004ED00E07D084000034B41F63F721A6071
:10094000072243F8042C704714E000E013B5234B52
:100950001A78D2B20192FF221A701B78204ADBB2B9
:100960008DF803309DF8033003F0A00313701D4B86
:1009700007221A6000219DF80300000602F1FF34EF
:1009800023D401B11A601A68120202F4E0621A60FC
:10099000019B124ADBB21370134B1A6842F47002C7
:1009A0001A601A6842F070421A60104B9847104B58
:1009B00000221A600F4B98470F4A136843F04043D8
:1009C00013600E4B98470E4B98479DF8032052003A
:1009D000D2B28DF8032001212246CCE700E400E0EA
:1009E000E00A0020E40A002020ED00E03909400080
:1009F00084000020C107400034EF00E0A50740005C
:100A00004108400008B5EFF305830F2B08D90A4AC7
:100A10009B5C0A4A12789A4202D9094B9847FEE732
:100A2000084B094A1B68126803F4E063934202D939
:100A3000034B9847FEE708BDF0E300E0E00A002022
:100A4000310840000CED00E0E40A002070B5274BAF
:100A5000044698472648016869B9264B264A274D1F
:100A6000516023F007031360254A82E8220083E8DF
:100A70002400012303602CB1083463071CBF24F059
:100A8000070408341F4B621E9A4207D81A4A13689B
:100A900059688C4204D81A498B4207D100251EE0C0
:100AA00019680029F7D01A460B46F1E7196815684E
:100AB00011605968091B102905F108050AD91A198E
:100AC00051605C6056680C4908684468A6420AD8C0
:100AD00010600A600C495B680A68D21A0A600B4B06
:100AE0009847284670BD0146EEE700BF1514400048
:100AF000F0360120F00A0020F4360120F82B010026
:100B0000E8360120F62B0100880000206D1540001A
:100B100070B50446C8B10D4BA0F10805984754F8CC
:100B2000040C0B4B1A68516888420CD844F8082C06
:100B3000084A1D6054F8043C11680B441360BDE87A
:100B40007040054B18471346ECE770BD1514400084
:100B5000F4360120880000206D15400038B5154698
:100B6000026C04464AB905681DB94068154B9847A0
:100B70006560A36B0133A36338BD134B5DB9806817
:100B80009847A368226C13446268A3609342F0D331
:100B90002368A360EDE7C0689847236CE26821688A
:100BA0005B421A448A42E2603EBF62689B18E3607F
:100BB000022DDED1A36B002BDBD0A36B013BA36323
:100BC000D7E700BFB1194000853B400013B5C46CA6
:100BD00001900A4614B90F4B9847FEE7A16BE36BEF
:100BE000994202D30B4B9847FEE7A16B8B4202D888
:100BF000002002B010BD084B01A920469847636A47
:100C0000002BF5D004F12400044B9847003018BFA6
:100C10000120EEE7310840005D0B4000ED17400079
:100C200030B4034608461C685CB1D9681A6C5D682C
:100C30001144A942D96028BFDC60D968024B30BC9E
:100C4000184730BC704700BF853B40002DE9F0419C
:100C50001F4E204D204FDFF888800446B047A36C1C
:100C6000002B14DC4FF0FF33A3641C4D194FDFF849
:100C70006880A847B04704F11006636C002B1BDCAA
:100C80004FF0FF3363642B46BDE8F0411847E36C37
:100C90004BB100212046C047012800D1B847A36CC2
:100CA000013BA364DBE7636A002BDBD004F1240083
:100CB000A8470028F3D0F1E72369002BE0D03046A5
:100CC000B84700B1C047636C013B6364D5E700BF20
:100CD0005D084000ED174000FD1840008508400009
:100CE000CD0B400038B50D46044610B9154B98475A
:100CF000FEE7154B9847206CE36B2268A2604343E4
:100D0000D1181B1A13446160E36000214FF0FF33D8
:100D1000A1636364A3646DB923693BB104F110005E
:100D20000A4B9847012801D1094B9847094B98472E
:100D3000012038BD04F11000074DA84704F124003C
:100D4000A847F3E7310840005D084000ED17400078
:100D500019084000850840001D074000F8B50E4600
:100D6000054668B150200D4FB847044640B106FB18
:100D700005F00130B847206028B92046084B984755
:100D8000084B9847FEE7E563266401212046064BA1
:100D900098470023E3642046F8BD00BF4D0A400099
:100DA000110B400031084000E50C40002DE9F04FE8
:100DB00087B08A4603929846044610B9434B984739
:100DC000FEE700296ED1036C002B6BD03F4B984798
:100DD000FEE7039E002E70D03C4B9847FEE7636A07
:100DE000002B52D004F12400394B984749E0039D71
:100DF00015B9B84700204AE016B904A8354B984702
:100E0000B847354B354E364D9847C847636C01336C
:100E100004BF00236364A36C013304BF0023A364F5
:100E2000B84703A904A82F4B9847002836D1C847D4
:100E3000A26BE36B02920193B847019B029A9A421C
:100E400028D10399284B04F1100098472046B04759
:100E5000A84708B9254B98470126D847A26BE36BF2
:100E60009A4202D3B8F1020FC1D1214B42465146FA
:100E700020469847E36C002BB1D0414620461D4BDD
:100E80009847012801D1194B9847B847012007B06E
:100E9000BDE8F08F2046B047A847DDE72046B047C1
:100EA000A847A7E7B8F1020F02D1E36B012B09D1E4
:100EB000114B984700288CD00026DFF844B00F4F24
:100EC000D946CAE7014B9847FEE700BF310840000A
:100ED000ED1740006D184000151440004D0C400007
:100EE0006D15400091184000491740001908400056
:100EF0005D0B4000CD0B40001519400085084000F7
:100F00005D0840002DE9F0410F4690461D4604461D
:100F1000234E08B9B047FEE7F1B9036CE3B1B0471F
:100F2000FEE7636A002B37D004F124001D4B98477D
:100F3000002831D0B8F1000F2ED00124C8F80040AD
:100F40003046194B98472046BDE8F081A36C013329
:100F5000A36421E00024F3E7022D02D1E36B012B0F
:100F60001CD1124B9847B047A26BE36B9A420646DE
:100F700001D3022DEED10E4B2A4639462046984722
:100F8000A36C0133E2D1E36C002BCAD02946204682
:100F9000084B98470128CDD00124D1E7B047FEE7A0
:100FA00031084000ED1740007D084000050A400070
:100FB0005D0B4000CD0B40002DE9F04F85B0894618
:100FC00001929A46044610B9454B9847FEE700291E
:100FD0007BD1036C002B78D0414B9847FEE7019FF3
:100FE000002F77D03E4B9847FEE7636AE560002B01
:100FF0005ED004F124003B4B9847002858D055E0C0
:10100000019D15B9B047002054E017B902A8364B2E
:101010009847B047354B364F364D9847C047636CBD
:10102000013304BF00236364A36C013304BF0023B6
:10103000A364B04701A902A82F4B9847002840D1CC
:10104000C047A36B0093B047009B002B35D12368AA
:1010500023B9C0476068294B9847B0470199284B8E
:1010600004F1240098472046B847A84708B9254B03
:1010700098470127D847A36B002BC1D0494620468B
:10108000214BE5689847BAF1000FAED1A36B013B45
:10109000A363236813B91D4B9847606023693BB174
:1010A00004F110000F4B9847012801D1154B9847C8
:1010B000B047012005B0BDE8F08F2046B847A847EB
:1010C000D7E72046B847A8479DE7114B9847002827
:1010D00085D00027DFF840B00E4ED846CAE700BFE3
:1010E00031084000ED1740006D1840001514400015
:1010F0004D0C40006D15400091184000351940001E
:101100004917400019084000210C4000091940000F
:1011100015194000850840005D08400070B5044680
:101120000D4B0D469847636C013304BF0023636485
:10113000A36C013304BF0023A364084B9847A36B3F
:1011400023B9294604F12400054B98472046054B56
:10115000BDE87040184700BF5D08400085084000AA
:10116000A91740004D0C4000064A13681968064B49
:1011700019B94FF0FF321A6070471268D268D2680E
:101180005268F8E7003701208C00002010B50D4BA5
:101190001A6850600C4A1268904204460B4A06D204
:1011A0000B4908681968BDE8104004311047094927
:1011B0000868196804319047074B1A68944238BF91
:1011C0001C6010BDFC360120F037012051074000A3
:1011D00004370120003701208C0000202DE9F84F52
:1011E0000A9EDDF830B00F4615469A46804610B983
:1011F000524B9847FEE7042E02D9504B9847FEE722
:101200004420DFF89091C847044648B1BBF1000F75
:101210000AD1A800C847206390B92046484B984798
:101220004FF0FF30BDE8F88F5846F4E7D9F80030AA
:10123000002B63D11368DB6A9E4228BF14605DE017
:1012400005F18045013D00EB85007B1E20F0070580
:1012500004F134020937597802F8011B13F8011F11
:1012600009B19F42F7D10023271D84F83D3038464D
:10127000DFF824B1E6622664D84704F11800D847A5
:10128000C6F10503A36124612E4B646252464146B8
:10129000284698470B9B206003B11C602A4BDFF85F
:1012A000FC909847294B1A6801321A60284A116845
:1012B00090460029BAD114601B68012B1ED1254D20
:1012C0002548DFF8DCB0DFF8DCA0A8472348A847B2
:1012D0002348A8472348A8472348A8475846A84773
:1012E0005046A8472148A8472148A8472148A84771
:1012F000214BC3F800B0214BC3F800A0204A13686B
:10130000013313601F4AE36A11688B4288BF136080
:10131000114A142000FB032039461B4B98471B4BF6
:101320009847D9F8003033B1D8F80030DB6A9E42D4
:1013300001D9174B98470120BDE8F88F31084000CC
:10134000110B4000D50740005D0840006C370120BC
:10135000FC3601201D074000083701201C37012002
:10136000303701204437012058370120B0370120A1
:10137000DC370120C8370120003701200437012065
:101380007837012080370120390740008508400068
:10139000190840004D0A400033074000C4370120BF
:1013A000843701209837012030B585B00024114DD5
:1013B0000394029401940094234682220E490F481C
:1013C000A847012805460FD10D4B9847012805462F
:1013D0000AD10C4B98470C4B1D600C4B1C600C4BFE
:1013E00005B0BDE83040184715B9064B9847FEE7F1
:1013F00005B030BDDD114000886A40005516400040
:10140000B11A400031084000C4370120F0370120F4
:101410004D094000024A136801331360704700BF52
:101420007437012010B5044B9847044B1C68044BDB
:101430009847204610BD00BF5D084000F0370120EE
:10144000850840002DE9F84F394B1B68002B4CD123
:10145000384B1A6801321A601D688DB9364B1A680C
:10146000126812B1354B9847FEE7354A1968106883
:1014700018601160334A136801331360324B984788
:10148000324C334F23689D424FF000093CD3DFF8C4
:10149000A880DFF8D4A0D8F80020126862BB4FF013
:1014A000FF32226030E006F1040B5846294B984782
:1014B000B16A19B106F11800264B9847F06ADAF8BC
:1014C0000010254B88424FF0140E88BFCAF8000068
:1014D00059460EFB0030214B98473868F16AC26AC2
:1014E000914228BF4FF00109D5E71D4A1368013327
:1014F00013604FF0000911E0D8F80020D268D668D8
:1015000071688D42CFD221603A68134BD16A1422A0
:101510004A439A58022A28BF4FF00109114A12681B
:10152000002A18BF4FF001094846BDE8F88F00BFF8
:1015300074370120F03701200037012031084000C6
:1015400004370120AC370120691140008C000020D5
:10155000FC3601207F074000083701203907400092
:1015600070370120F4370120803701202DE9F04148
:10157000294C236813B9294B9847FEE7284B984715
:101580002368013B236023682BB10024254B984737
:101590002046BDE8F081244B1B68002BF5D0234D7D
:1015A000234E1DE0EB68DC6804F1040804F1180028
:1015B000B0474046B047E36A3A6893421D4A88BF45
:1015C0003B60142000FB032041461B4B98471B4BFC
:1015D000E26A1B68DB6A9A4203D3194B01221A6044
:1015E000184F2B68002BDDD1174C236883B9144B9F
:1015F0001C68012CC9D1154B9847C7E7A84700B113
:1016000037602368013B23602368002BF6D1EEE7A7
:101610000F4D0B4E0127F7E77437012031084000CA
:101620005D084000850840006C370120B03701207C
:101630007F0740000837012039074000FC360120B1
:10164000F43701208037012070370120190840004D
:101650004514400080B5144C144E154D236833B921
:10166000144B1B68012BF8D9134B9847F5E7B0478B
:101670002F68124B9847002FF0D0114B114F98470D
:10168000EB68DD68104B281D9847104A1368013B32
:1016900013602368013B23600D4B9847286BB847C4
:1016A0002846B847D9E700BF7C3701201514400011
:1016B000DC37012008370120190840006D15400073
:1016C0005D084000110B40007F0740006C3701208F
:1016D0008508400038B5164B1A68164B12B1012226
:1016E0001A6038BD1A60144A144914231546086854
:1016F0005843105890B109684B43D01808334468D8
:101700006468446013449C4204BF636843601423CC
:1017100003FB01514B68DA68094BE1E7086810B92F
:10172000084B9847FEE7086801380860DFE700BF0C
:1017300074370120F4370120083701208037012059
:10174000FC3601203108400070B50D4610B90E4B33
:101750009847FEE70D4C0E4B2168183198472068DA
:101760000C4B043098476B1C06D121680A480B4B80
:101770000431BDE870401847094B1868094B2844EC
:10178000BDE87040184700BF31084000FC3601201A
:10179000510740007F074000C8370120390740004B
:1017A000F03701208D11400070B50D4610B9094B7E
:1017B0009847FEE7084C094B216818319847206884
:1017C000074B04309847074B1868074B2844BDE87F
:1017D0007040184731084000FC36012039074000AE
:1017E0007F074000F03701208D114000F8B5C36835
:1017F000DC6814B9144B9847FEE704F1180630462C
:10180000124F134DB847134B1B68CBB9261D3046FA
:10181000B847114AE36A11688B4288BF13600F4AC8
:101820001420314600FB0320A8470D4BE26A1B68D9
:10183000DB6A9A4283BF0B4B012018600020F8BD81
:1018400031460948F0E700BF310840007F074000FB
:101850003907400074370120803701200837012004
:10186000FC360120F4370120B037012008B510B94B
:10187000044B9847FEE7044B1B680360034B1B684F
:10188000436008BD31084000AC370120F03701202B
:1018900038B50D46044610B9124B9847FEE711B90A
:1018A000104B9847FEE7104B9847104B19682B6870
:1018B0005A1C10D00E4A206812689042626801D00B
:1018C00091420DD2881A83420AD95B1A13442B60C5
:1018D0002046084B98470024074B9847204638BDC0
:1018E0000124F9E7310840005D084000F03701208D
:1018F000AC3701206D18400085084000014B0122E3
:101900001A607047F4370120014B1868704700BF18
:10191000FC360120054B1B6833B1054B1B68002BBF
:101920000CBF02200020704701207047C4370120FF
:10193000743701202DE9F041044600282BD0174DC3
:10194000C36A2A68D26A934225D28269144E002A59
:10195000A1BF2A68D26AC2F105028261142202FB89
:10196000036342699A4213D1071D0E4B38469847CC
:101970002B680D4ADB6A1168E3628B4200D9136061
:10198000142000FB03603946084BBDE8F0411847BE
:101990002B68DB6AC362BDE8F08100BFFC36012022
:1019A000083701207F0740008037012039074000B9
:1019B00070B50446E8B1C26A036C9A4219D0051D9D
:1019C00028460C4B9847A269236CE362002AA4BF07
:1019D000C3F10502A261084A11688B4288BF1360F7
:1019E000064A1420294600FB0320BDE87040044B42
:1019F000184770BD7F07400080370120083701205D
:101A0000390740002DE9F0410F4C104B98472568ED
:101A1000ADB90F4F0F4EDFF854803846C0473046FF
:101A2000C0470D4B1F600D4B2A461E600C21022043
:101A30000B4B9847206010B90A4B9847FEE70A4BBA
:101A4000BDE8F041184700BF2C3801205D08400078
:101A50000038012014380120F8370120FC3701201C
:101A60005D0D400031084000850840001D07400022
:101A7000914208B5416000610AD8D21A83699A423E
:101A80000DD2084B011D1868074B9847002008BD70
:101A90009A4201D2994202D2011D044BF3E7012080
:101AA00008BD00BFFC37012051074000F837012076
:101AB0001FB50C4B98470C4B1B6813B90B4B984741
:101AC000FEE70023022200920393029301934FF456
:101AD000827207490748084CA0470028EED004B09E
:101AE00010BD00BF051A40002C380120310840000D
:101AF0008D6A4000C91B4000DD1140007FB50F4CCE
:101B00000546206816461A4680B1052901910296BD
:101B100003950DDC0A4B0B4D98470023022808BFA4
:101B2000089A206818BF1A4601A9A84704B070BDDA
:101B3000002301A9044CA047F8E700BF2C3801207E
:101B400015194000AD0D4000050F40002DE9F3418F
:101B5000174D184F2B681A6832B9174A1168296057
:101B6000136002B0BDE8F081DB68DC681E6804F138
:101B700004084046B847636A20469847E369012B4A
:101B8000E8D1A36933449E4206D263602461414692
:101B900028680A4B9847DDE7002320460093324629
:101BA0001946074CA0470028D4D1064B9847FEE7BA
:101BB000F83701207F074000FC3701205107400023
:101BC000FD1A4000310840002DE9F04F87B0DFF8E2
:101BD0009CB1DBF800201768002F3AD0D268156856
:101BE000544A554C554E9047B04722689042814622
:101BF000A04630D2524A90474FF0010AC4F80090F4
:101C0000504CBAF1000F67D1002F59D04D4557D82D
:101C1000A047DBF80030DB68DC684B4B201D9847A1
:101C2000E369012B1AD1A1694A462B462944204673
:101C3000DFF83491C847012810D12A46CDF800A01A
:101C4000534651462046414DA84738B9404B984726
:101C5000FEE73D46C4E74FF0000ACFE7636A20463F
:101C60009847DFF8F8903B4DD9F8000000231A465A
:101C700003A9A8470028AAD0039B002BF4DB059CEE
:101C8000636913B1201D304B9847B047D8F8003036
:101C90009842834601D22A4B9847039AC8F800B06D
:101CA000092AE1D80123934013F4047A34D113F0C4
:101CB000C70F13D19B06D7D52046274B9847D2E7AD
:101CC000264BA5EB09011868254B9847A04700282B
:101CD000C7D1244B9847C4E7A047C2E7A169049B3A
:101CE000214D5A4619442046A8470128BBD1636AB2
:101CF00020469847E369012BB5D1A2690499CDF834
:101D000000A00A44204653465146104CA0470028E4
:101D1000A9D10F4B9847FEE70499A16111B90C4B6B
:101D20009847FEE75B465A46594420460E4CA0476A
:101D300099E700BF15144000283801202514400001
:101D40004D1B40006D1540007F074000FD1A40000C
:101D500031084000B90F4000110B40002C38012021
:101D60001D11400019084000711A4000F837012089
:101D700038B5204C204B214D204698472046022163
:101D80001F4B98470223C4F800348023C4F8003462
:101D90004FF08073C4F80034D4F8043443F00103E6
:101DA000C4F80434D4F8043443F01003C4F8043401
:101DB00004F5806400212046124B9847002211460A
:101DC0002046114B98470122002120460F4B98478F
:101DD0000022114620460E4B9847EF2200210D4B62
:101DE000204698471023402200212046A84701237F
:101DF000236038BD00800040092340008705400073
:101E0000F9234000AD044000270540003D05400097
:101E1000530540006705400038B5204C204B214D4C
:101E200020469847204602211F4B98470223C4F8BA
:101E300000348023C4F800344FF08073C4F80034B9
:101E4000D4F8043443F00103C4F80434D4F804345F
:101E500043F01003C4F8043404F5806401212046E3
:101E6000124B9847002201212046114B984701222E
:101E7000114620460F4B98470022012120460E4B69
:101E80009847EF2201210D4B20469847102340220E
:101E900001212046A8470123236038BD008000406F
:101EA0000923400087054000F9234000AD044000AD
:101EB000270540003D0540005305400067054000F0
:101EC0002DE9F3410023174D8DF805300E461446D9
:101ED00000F07F011A461448ADF80630A847124AB0
:101EE000A84613699907FCD50DF105020DF106010D
:101EF0000D480E4D0C4FA8472644B44202D102B003
:101F0000BDE8F08100231A4614F8011B3846C0478B
:101F10003B699B07FCD50DF105020DF10601384622
:101F2000A847EAE7F904400000840040C5044000E7
:101F30002DE9F3410023194D8DF805300E46144666
:101F400040F080011A461648ADF80630A847144AFA
:101F5000A84613699907FCD50DF105020DF106019C
:101F60000F48104D0E4FA8472644B44202D102B08C
:101F7000BDE8F08100239DF8052019463846C0478A
:101F80003B699B07FCD50DF105020DF106013846B2
:101F9000A847BDF8063004F8013BE6E7F904400025
:101FA00000840040C5044000F7B5002301932E4B88
:101FB000984204460D4612D12C4E074601A93846D8
:101FC000B0470028FAD1019B2B70294B9C421DD1B0
:101FD000264E01A92046B0470028FAD13FE0254B04
:101FE000984207D1214E074601A93846B04700283C
:101FF000FAD1E8E7204B984212D11C4E074601A9BE
:102000003846B0470028FAD1019B2B701B4B9C42ED
:1020100012D1164E01A92046B0470028FAD11EE081
:10202000174B984212D1114E074601A93846B047C6
:102030000028FAD1019B2B70124B9C4211D10B4E00
:1020400001A92046B0470028FAD108E00E4B98427B
:10205000BBD1064E01A92046B0470028FAD1019B0A
:102060002B7003B0F0BD00BF00C200407F064000EF
:102070000082004000020240004202400002044090
:10208000008201400042034000C201402A4B9842B6
:1020900070B504460D4607D1284E29462046B04764
:1020A0000028FAD1012070BD254B984206D1234E5D
:1020B00029462046B0470028FAD1F3E7214B984241
:1020C00006D11E4E29462046B0470028FAD1E9E73E
:1020D0001D4B984206D1194E29462046B04700288C
:1020E000FAD1DFE7194B984206D1144E2946204613
:1020F000B0470028FAD1D5E7154B984206D10F4ECC
:1021000029462046B0470028FAD1CBE7114B984228
:1021100006D10A4E29462046B0470028FAD1C1E729
:102120000D4B984206D1054E29462046B04700285F
:10213000FAD1B7E7002070BD00C200406D06400034
:1021400000020240004202400082014000C2014001
:1021500000820040000204400042034010B586B0F7
:102160000368009343680193836802930D4CC3682E
:1021700003930023049320460B4B984720460121EC
:1021800004F50074094B9847094A0A4B69462046F2
:1021900098472046084B98472046084B984706B07A
:1021A00010BD00BF00C0004009234000F9234000DB
:1021B0000000270715064000590640005F06400052
:1021C0007FB5194B194E1A4D1A4C0FCB8DE80F00E5
:1021D000194B082098476846B047184B184A1D60AD
:1021E000184B1A60184B194A1A606846B047184EC7
:1021F000336800219868A047336800215868A047D9
:102200002846144B98472846134B984701212846E7
:10221000124B9847124B002283F808234FF4807228
:102220001A6004B070BD00BF986A40005D21400094
:1022300000C20040553D4000A926400078380120EA
:102240008D2040007438012070380120A91F400003
:10225000980000205F0640005906400065064000D7
:1022600000E100E037B5104B10489847C20704461C
:102270000FD50DF107010D480D4B0E4D98470E4B34
:102280009DF807200D481A7000231A461946006869
:10229000A847E30606D50A48064C006800231A46FC
:1022A0001946A04703B030BD6906400000C2004097
:1022B000A91F4000AD0D400094380120883801204E
:1022C0008C380120013802282DE9F0410E4612D841
:1022D0000B4FDFF830808D180C46AC42A4EB0600A3
:1022E00001D1BDE8F081386814F8011BD8F800303E
:1022F00098470028F1DA4FF0FF30BDE8F08100BFC9
:10230000783801207438012013B52D4A1378FF2B3B
:1023100000D1FEE7EFF31083B3FA83F35B09019377
:1023200072B6BFF35F8F274900230B701378019CAF
:102330000133137024B101230B70BFF35F8F62B6BA
:10234000214B98420ED10720204B98470720204B65
:102350009847002107201F4B984707201E4B98479E
:1023600002B010BD1D4B984201D11620ECE71C4B6A
:10237000984201D11520E7E71A4B984201D1142069
:10238000E2E7194B98420BD11320104B98470620D7
:102390000F4B9847002106200E4B98470620DDE79B
:1023A000124B984201D10E20EFE7114B984201D118
:1023B0000920EAE70F4B9842D2D10820E5E700BF99
:1023C000683801209000002000400340A92640000A
:1023D0002D274000E9264000192740000000044056
:1023E0000080004000C001400080014000400240E9
:1023F0000000024000C000400160704730B518483E
:10240000184C194DA3B0A0470020184B9847A84777
:102410000028FCD0164B174D9847174B174A9A6265
:10242000A8470028FCD0164B00209847154B98472A
:102430001548A047154B1A68154B1344154A93428B
:102440000CD8202300930E2102AB0F221248134C0C
:10245000A047BDF848101248124B984723B030BD32
:10246000000E2707CD28400071264000512640006D
:102470008D2640009926400000040E40013F4D0E7D
:102480000D26400019284000000027079400002076
:10249000C0D3BDF980C3C901000A0E400D00002061
:1024A00010140E404127400000F01F02400900F5C3
:1024B000001000F207704002012393400A074CBF4E
:1024C00043660366CA064CBFC0F89430C0F890302B
:1024D0008A064CBF0365436511F0C00F14BF036249
:1024E00043620A064CBFC0F88430C0F88030026FE7
:1024F00011F0010F14BF1A439A430267426F890714
:102500004CBF134322EA0303436770472DE9F843A6
:10251000394B3A4C3A4E3B4D4FF40049C3F80490C6
:102520000B20A0470C20A047374C4FF480670423B2
:1025300037610821C6F8A070022037636361C4F8D0
:10254000A030A8474FF400580223236300212361E1
:102550000C20C4F8A030C6F83080C6F81080C6F849
:10256000A080C6F83090C6F81090C6F8A090A84792
:102570004FF48053636000210D20A847C4F8048005
:1025800000210E20A8474FF48043636000210B20F8
:10259000A8474FF400636360012105204FF0200835
:1025A000A84700212820C4F80480A8474FF480736E
:1025B0007360002129204FF40079A84700210920E9
:1025C000C6F80490A84700210A20C4F80490A84740
:1025D000002140466760A84701237360002119204D
:1025E000A8474FF00073636000211A20A8474FF0FE
:1025F00080636360BDE8F88350140E40A926400054
:1026000000100E40A9244000000E0E400F4B1A6B24
:1026100022F070021043186340F60102996E080719
:102620000CD51A6B22F0030242F002021A6340F644
:102630000102996E090705D500207047013AEDD1D6
:1026400001207047013AF4D1FAE700BF00040E40C0
:10265000054A012801BF936843F0254343F48013E2
:102660009360024B1360704710140E40080000A5E1
:10267000054B586910F080001FBFA3F58053103B35
:10268000986EC0F3C010704710140E40014B00222A
:102690009A62704700040E40024B986E00F00200F0
:1026A000704700BF00040E40322818D81F280D4A7A
:1026B0004FF0010308D8916903FA00F030EA0103F2
:1026C00000D01061002070472038D2F8081103FABA
:1026D00000F030EA0103F5D0C2F80001F2E7012072
:1026E000704700BF00040E4000F11002094B41F09A
:1026F000040143F822104FF4807202FA00F040F611
:102700000102996E014201D000207047013AF8D1D0
:102710000120704700040E404FF4807303FA00F06C
:10272000014B1860704700BF00040E404FF48073E7
:1027300003FA00F0014B5860704700BF00040E40E0
:102740004902C36901F4F05141F0B44141F4807190
:1027500023F4F0531943C1617047FEE707B5224BDC
:10276000224A9A4233D1224B224A0021934237D344
:10277000214B224A23F07F039360EFF31083B3FAD7
:1027800083F35B09019372B6BFF35F8F1C4A1D4947
:102790000023137001980B6843F470030B60BFF3C0
:1027A0004F8FBFF36F8F20B101231370BFF35F8F83
:1027B00062B6154BB3F5203F3FBF104A936843F014
:1027C00000539360114B9847114B9847FEE711490E
:1027D000043A8B42C7D252F8040F43F8040BF8E7CF
:1027E00043F8041BC2E700BF00000020D06C40008B
:1027F000480A0020C0B801200000400000ED00E0C1
:102800009000002088ED00E0000040E00D3B40001B
:102810005D3A4000480A0020254A264B116B01F022
:10282000030101291DD012D302292CD0116B01F014
:10283000700170291BBF116B1A681A68C1F302116D
:1028400012BFCA400321B2FBF1F21A6070471A4965
:10285000496909064CBF4FF400414FF4FA41196031
:10286000E4E7116AC80101D51449F8E71449196071
:10287000116A01F07001102903D02029D6D1114925
:10288000EDE71149EBE70C49496909064CBF4FF4E4
:1028900000414FF4FA411960116B01F00301022964
:1028A000C4D1906A1968C0F30C4000FB0111D6E74F
:1028B00000040E409400002010140E40001BB700CE
:1028C00000127A0000366E010024F4000E4B98428C
:1028D0000E4B03D84FF080621A6070470C4A90424A
:1028E00001D80C4AF8E70C4A904201D80B4AF3E7AA
:1028F0000B4A904201D80B4AEEE70B4A904294BF34
:102900004FF00422094AE7E7FF2C3101000A0E408C
:10291000FF59620200010004FF86930300020004D5
:10292000FFB3C40400030004FFE0F5050005000444
:10293000074B1A680AB9074A1A601A680649104410
:102940008142A6BF186010464FF0FF30704700BFAD
:1029500030380120C0E80120FC7F02204FF0FF301A
:1029600070474FF400534B600020704701207047C0
:102970000020704710B40548054C00680023A446A9
:102980001A4619465DF8044B604700BF94B8012011
:10299000AD0D400073B5114C114B124E05460B2086
:1029A000984770234FF080424FF020512046B047A7
:1029B000009570234FF080420B2120460A4DA84716
:1029C000204600220B21094B9847094B4FF08041CC
:1029D000204602B0BDE87040184700BF000E0E4010
:1029E000A92640009D0240009D03400029044000AC
:1029F000110340002DE9F04F89B01923444D8DF8A3
:102A00000C3003AA47234FF0320903210020414C28
:102A10008DF80E3001938DF80D90A8475620A047F1
:102A20004C2233264FF0020A8DF80E20032103AA10
:102A300000208DF80CA08DF80D60A8475620A04707
:102A40004FF001084FF04F0303AA032100208DF837
:102A50000E308DF80C808DF80D60A8475620A047E9
:102A600004228DF80C204A228DF80E20032103AA9F
:102A700000208DF80D60A8475620A04703214D2265
:102A8000002708468DF80E2003AA8DF80C708DF8EB
:102A90000D60A8475620A0474FF0800B019B8DF892
:102AA0000E3003AA032140468DF80CB08DF80D605E
:102AB000A8475620A04703AA8DF80CB003214FF079
:102AC000440B50468DF80D608DF80EB0A847562087
:102AD000A047922303AA032138468DF80C308DF8C5
:102AE0000D908DF80EB0A8475620A0474FF04F0329
:102AF00003AA032138468DF80E308DF80C808DF82E
:102B00000D60A8475620A04709B0BDE8F08F00BF70
:102B1000C11E4000010000202DE9F04786B00224CC
:102B2000334F344E344D01AA0021E420B8478823A6
:102B300001AA214600208DF805308DF80440B047E9
:102B40005620A84701AA0021E420B8474FF0010A07
:102B50008B2301AA214600208DF805308DF804A0B2
:102B6000B0475620A84701AA0021E420B847042313
:102B700001AA21468DF8043000208E238DF80530FF
:102B8000B0475620A84701AA0021E420B8474FF0DB
:102B90000008AD2301AA214603208DF805308DF8E9
:102BA0000480B0475620A84701AA4146E420B84710
:102BB0004FF08009172301AA214650468DF80530B1
:102BC0008DF80490B0475620A84701AA4146E4205A
:102BD000B847302301AA214620468DF805308DF8EC
:102BE0000490B0475620A84706B0BDE8F08700BF64
:102BF000311F4000C11E4000010000202DE9F04FB0
:102C0000C04BC148C14EC24DC24F4FF0005291B0AF
:102C10001A61C3F8A0201A63BF4B9847BF4B98476F
:102C2000BF4B00249847F3230BAA03212C208DF8D7
:102C30002E308DF82C408DF82D40B0475620A847F7
:102C40000BAA02212C20B8475620A847BDF82C100B
:102C5000B44BB54849BA89B29847B44B98470BAAC8
:102C60002146B020B847F9230BAA022120468DF84F
:102C70002D308DF82C40B0475620A8470BAA21468E
:102C8000B820B847A3230BAA022120468DF82D3087
:102C90008DF82C40B0475620A8470BAA2146FC20AF
:102CA000B84706230BAA02218DF82C302046622358
:102CB0008DF82D30B0475620A8470BAA2146D020CA
:102CC000B8474FF0070861230BAA022120468DF870
:102CD0002D308DF82C80B0475620A8470BAA2146EE
:102CE000FC20B84763230BAA022120468DF82D3023
:102CF0008DF82C80B0475620A8474FF002080BAA49
:102D00002146D020B8474FF064090BAA414620461F
:102D10008DF82C808DF82D90B0475620A8470BAA2F
:102D20002146FC20B84720460BAA41468DF82C408E
:102D30008DF82D90B0475620A8470024744D734F4E
:102D4000744E5620A847F1230BAA032120468DF884
:102D50002E308DF82C408DF82D40B8472B20A847F9
:102D60000BAA02212046B0479DF82C309DF82DA0DB
:102D70004AEA032A0FFA8AF32B200793A847DC2399
:102D80000BAA032104208DF82E308DF82C408DF8ED
:102D90002D40B8472B20A8470BAA02210420B0479A
:102DA0009DF82C309DF82DB02B204BEA032BA84723
:102DB000AB230BAA032108208DF82E308DF82C4070
:102DC0008DF82D40B8472B20A8470BAA02210820D8
:102DD000B0479DF82C209DF82D3043EA02231BB20A
:102DE0002B200893A84786230BAA03210C208DF8DB
:102DF0002E308DF82C408DF82D40B8472B20A84759
:102E00000BAA02210C20B0479DF82C309DF82D8094
:102E10002B2048EA0328A84745230BAA03211020AA
:102E20008DF82E308DF82C408DF82D40B8472B2092
:102E3000A8470BAA02211020B0479DF82C209DF82E
:102E40002D302B2043EA02230FFA83FAA847682388
:102E50000BAA032114208DF82E308DF82C408DF80C
:102E60002D40B8472B20A8470BAA02211420B047B9
:102E70009DF82C209DF82D3043EA02231BB22B2015
:102E80000993A8471F228DF82E2003210BAA182092
:102E90008DF82C408DF82D40B8472B20A8470BAA61
:102EA00002211820B0479DF82C209DF82D902B2052
:102EB00049EA0229A84732228DF82E2003210BAAC5
:102EC0001C208DF82C408DF82D40B8472B20A847AA
:102ED0000BAA02211C20B0479DF82C209DF82D4004
:102EE0002B2044EA0224A847089B0493079B0293E3
:102EF0000FFA8BFB099B00930FFA88F80FFA89F9F8
:102F000016E000BF000E0E4075294000C11E4000B3
:102F100001000020311F400095294000191E40008B
:102F2000F52940005D3B4000A86A4000192B400095
:102F300024B22246CDF80CB0CDF804905346414659
:102F4000014C0248A047F8E65D3B4000D06A4000D3
:102F50002DE9F04FBC4BBD48DFF81483BC4FBD4D8D
:102F60004FF0005291B01A61C3F8A0201A63BA4B17
:102F70009847BA4B9847BA4B002498470BAA0021B0
:102F8000FC20C04764230BAA022120468DF82D3077
:102F90008DF82C40B8475620A847F3230BAA0321ED
:102FA0002C208DF82E308DF82C408DF82D40B84710
:102FB0005620A8470BAA02212C20C0475620A8471C
:102FC000BDF82C10A74BA84849BA89B29847A74B1F
:102FD00098470BAA21464420C04736230BAA02215A
:102FE00020468DF82D308DF82C40B847562002260B
:102FF000A8470BAA2146E420C0474FF0880B0BAA34
:10300000314620468DF82C608DF82DB0B8475620FB
:10301000A8470BAA2146E420C0474FF0010A4FF011
:103020008B090BAA314620468DF82CA08DF82D90E7
:10303000B8475620A8470BAA2146E420C0474FF0C6
:1030400004030BAA31468DF82C3020466FF0710333
:103050008DF82D30B8475620A8470BAA2146FC20F2
:10306000C0474FF007030BAA31468DF82C3020469D
:1030700063238DF82D300793B8475620A8470BAA35
:103080002146D020C047662231468DF82D202046AB
:103090000BAA8DF82C40B8475620A8470BAA21460A
:1030A000E420C0470BAA314620468DF82C608DF8ED
:1030B0002DB0B8475620A8470BAA2146E420C047A8
:1030C0000BAA314620468DF82CA08DF82D90B847DC
:1030D0005620A8470BAA2146E420C0474FF004031E
:1030E0000BAA31468DF82C3020466FF071038DF815
:1030F0002D30B8475620A8470BAA2146FC20C047D0
:103100004FF006030BAA31468DF82C3020464FF0C5
:1031100062038DF82D30B8475620A8470BAA2146E8
:10312000D020C04761224FF0070331468DF82D2093
:1031300020460BAA8DF82C30B8475620A8470BAA7A
:103140002146E420C0470BAA314620468DF82C606A
:103150008DF82DB0B8475620A8470BAA2146E42089
:10316000C0470BAA314620468DF82CA08DF82D9033
:10317000B8475620A8470BAA2146E420C0474FF085
:1031800004030BAA31468DF82C3020466FF07103F2
:103190008DF82D30B8475620A8470BAA2146FC20B1
:1031A000C0474FF007030BAA31468DF82C3020465C
:1031B000079B8DF82D30B8475620A8470BAA21460B
:1031C000D020C047AF230BAA314620468DF82D30C2
:1031D00007938DF82C40B8475620A8470BAA2146E4
:1031E000E420C0470BAA314620468DF82C608DF8AC
:1031F0002DB0B8475620A8470BAA2146E420C04767
:103200000BAA314620468DF82CA08DF82D90B8479A
:103210005620A8470BAA2146E420C0474FF00403DC
:103220000BAA31468DF82C3020466FF071038DF8D3
:103230002D30B8475620A8470BAA2146FC20C0478E
:103240004FF006030BAA15E0000E0E407529400052
:10325000C11E40000100002095294000711D400062
:10326000F52940005D3B4000A86A4000192B400052
:10327000311F400031468DF82C3020464FF062035C
:103280008DF82D30B8475620A8470BAA2146D020EC
:10329000C0474FF007038DF82C302046079B8DF870
:1032A0002D300BAA3146B8475620A8470024774D49
:1032B000774F784E5620A847F1230BAA03212046CA
:1032C0008DF82E308DF82C408DF82D40B8472B20EE
:1032D000A8470BAA02212046B0479DF82C309DF844
:1032E0002DA04AEA032A0FFA8AF32B200793A84756
:1032F000DC230BAA032104208DF82E308DF82C40FE
:103300008DF82D40B8472B20A8470BAA0221042096
:10331000B0479DF82C309DF82DB02B204BEA032BA5
:10332000A847AB230BAA032108208DF82E308DF877
:103330002C408DF82D40B8472B20A8470BAA02211E
:103340000820B0479DF82C209DF82D3043EA022339
:103350001BB22B200893A84786230BAA03210C201D
:103360008DF82E308DF82C408DF82D40B8472B204D
:10337000A8470BAA02210C20B0479DF82C309DF8DD
:103380002D802B2048EA0328A84745230BAA0321B8
:1033900010208DF82E308DF82C408DF82D40B84738
:1033A0002B20A8470BAA02211020B0479DF82C2003
:1033B0009DF82D302B2043EA02230FFA83FAA84709
:1033C00068230BAA032114208DF82E308DF82C4091
:1033D0008DF82D40B8472B20A8470BAA02211420B6
:1033E000B0479DF82C209DF82D3043EA02231BB2F4
:1033F0002B200993A8471F228DF82E2003210BAA0A
:1034000018208DF82C408DF82D40B8472B20A84768
:103410000BAA02211820B0479DF82C209DF82D9072
:103420002B2049EA0229A84732228DF82E200321B9
:103430000BAA1C208DF82C408DF82D40B8472B206E
:10344000A8470BAA02211C20B0479DF82C209DF80C
:103450002D402B2044EA0224A847089B0493079B95
:1034600002930FFA8BFB099B00930FFA88F80FFA6F
:1034700089F924B22246CDF80CB0CDF80490534619
:103480004146054C0548A04710E700BF0100002059
:10349000C11E4000311F40005D3B4000C16A40003A
:1034A0002DE9F04FBC4BBD48BD4DBE4FBE4E4FF059
:1034B000005291B01A61C3F8A0201A63BB4B984721
:1034C000BB4B9847BB4B002498470BAA0021FC201C
:1034D000A84764230BAA022120468DF82D308DF8D1
:1034E0002C40B8475620B047F3230BAA03212C20C9
:1034F0008DF82E308DF82C408DF82D40B847562091
:10350000B0470BAA02212C20A8475620B047BDF88F
:103510002C10A94BA94849BA89B29847A84B98479B
:103520000BAA21464420A84736230BAA0221204695
:103530008DF82D308DF82C40B84756204FF00208FA
:10354000B0470BAA2146E420A847882341460BAA8E
:1035500020468DF82D3006938DF82C80B8475620E4
:10356000B0470BAA2146E420A8474FF0010B414683
:103570000BAA4FF08B0A20468DF82CB08DF82DA0A9
:10358000B8475620B0470BAA2146E420A8474FF081
:10359000040341460BAA8DF82C3020466FF07103CE
:1035A0008DF82D30B8475620B0470BAA2146FC2095
:1035B000A847632241464FF007098DF82D20204689
:1035C0000BAA8DF82C90B8475620B0470BAA21467D
:1035D000D020A847662241468DF82D2020460BAA10
:1035E0008DF82C40B8475620B0470BAA2146E4205E
:1035F000A847069B8DF82D3041460BAA20468DF832
:103600002C80B8475620B0470BAA2146E420A84793
:1036100041460BAA20468DF82CB08DF82DA0B84756
:103620005620B0470BAA2146E420A8474FF00403D8
:1036300041460BAA8DF82C3020466FF071038DF8AF
:103640002D30B8475620B0470BAA2146FC20A8478A
:10365000062341460BAA8DF82C30204662238DF8B4
:103660002D30B8475620B0470BAA2146D020A84796
:10367000612341460BAA20468DF82D308DF82C9001
:10368000B8475620B047A04602270BAA0021E420E5
:10369000444C454EA84788230BAA394600208DF894
:1036A0002D3006938DF82C70A0475620B0470BAAFA
:1036B0000021E420A8474FF001030BAA39468DF8FA
:1036C0002C3000206FF074038DF82D30A047562069
:1036D000B0470BAA0021E420A8474FF004096FF07F
:1036E00071030BAA394600208DF82D308DF82C90EF
:1036F000A0475620B0470BAA0021FC20A847632210
:1037000039464FF0070B8DF82D2000200BAA8DF8BD
:103710002CB0A0475620B0470BAA0021D020A847C4
:103720004FF0AF0A0BAA394600208DF82DA08DF876
:103730002C80A0475620B0470BAA0021E420A847C0
:10374000069B8DF82D300BAA394600208DF82C7081
:10375000A0475620B0470BAA0021E420A8474FF00D
:1037600001030BAA39468DF82C3000206FF074034A
:103770008DF82D30A0475620B0470BAA0021E42039
:10378000A8476FF071030BAA394600208DF82D3041
:103790008DF82C90A04715E0000E0E4075294000D2
:1037A000311F4000C11E400001000020952940004B
:1037B000711D4000F52940005D3B4000A86A4000B3
:1037C000192B40005620B0470BAA0021FC20A84727
:1037D00006230BAA39468DF82C30002062238DF881
:1037E0002D30A0475620B0470BAA0021D020A84773
:1037F0000BAA394600208DF82CB08DF82DA0A047DB
:103800005620B0475620B047F1230BAA03210020D1
:103810008DF82E308DF82C808DF82D80A0472B2030
:10382000B04739460BAA0020A8479DF82C209DF8E8
:103830002D3043EA02231BB22B200693B047DC2332
:103840000BAA032148468DF82E308DF82C808DF878
:103850002D80A0472B20B04739460BAA4846A847E1
:103860009DF82C209DF82D3043EA02231BB22B201B
:103870000793B047AB230BAA032108208DF82E3005
:103880008DF82C808DF82D80A0472B20B04739462D
:103890000BAA0820A8479DF82C209DF82D3043EA5C
:1038A00002231BB22B200893B04786230BAA0321C7
:1038B0000C208DF82E308DF82C808DF82D80A047AF
:1038C0002B20B0470BAA39460C20A8479DF82C3076
:1038D0009DF82D902B2049EA0329B04745230BAAD8
:1038E000032110208DF82E308DF82C808DF82D803E
:1038F000A0472B20B04739460BAA1020A8479DF8B7
:103900002C209DF82D3043EA02231BB22B20099373
:10391000B04768228DF82E2003210BAA14208DF8C1
:103920002C808DF82D80A0472B20B04739460BAA5C
:103930001420A8479DF82C209DF82DA02B204AEAA2
:10394000022AB0471F228DF82E2003210BAA18202F
:103950008DF82C808DF82D80A0472B20B04739465C
:103960000BAA1820A8479DF82C209DF82DB02B20DD
:103970004BEA022BB04732228DF82E2003210BAAEE
:103980001C208DF82C808DF82D80A0472B20B0476F
:1039900039460BAA1C20A8479DF82C209DF82D40E5
:1039A0002B2044EA0224B047089B0493079B03930F
:1039B0000FFA89F9069B02930FFA8AFA0FFA8BFB2A
:1039C00024B222468DE8000C099B024C024849466D
:1039D000A04759E65D3B4000EE6A400010B50B4839
:1039E0000B4C0068002319464FF0FF32A047094BEB
:1039F0001B78332B05D0352B05D0322B05D1064B48
:103A00009847064BFCE7064BFAE710BD88380120C3
:103A1000B90F400094380120512F4000A1344000DC
:103A2000FD2B400008B5014CA047FDE7DD39400003
:103A300008B5032200210120054B064C064D98478E
:103A4000206000234FF0FF3219462068A847F8E7AE
:103A50005D0D400094B80120B90F40007FB51A4BAE
:103A60001A4C1B4D98471B4B98471B4B98470322FA
:103A700000210120A047194B0322186000210120DA
:103A8000A047174B1860174B17489847174B184912
:103A9000186000240126174B0193039423460294D7
:103AA000009640F282421448A847144B01938222A8
:103AB000234613490394029400961248A847124BD8
:103AC0009847204604B070BDFD2340005D0D4000C6
:103AD000DD1140000D254000C12140008838012043
:103AE0008C3801209506400000C20040803801203B
:103AF0001D6B400084380120253A40007C380120AD
:103B0000276B4000313A4000A913400070B50F4EBA
:103B10000F4D761BB61018BF002405D0013455F8A0
:103B2000043B9847A642F9D10A4E0B4D761B03F091
:103B3000B9F8B61018BF002406D0013455F8043B7C
:103B40009847A642F9D170BD70BD00BFB06C40006F
:103B5000B06C4000B86C4000B06C40000FB400B5D1
:103B6000074983B004AB086853F8042B81680193BC
:103B700000F000FA03B05DF804EB04B0704700BF3A
:103B800098000020844641EA000313F003036DD13E
:103B9000403A41D351F8043B40F8043B51F8043B10
:103BA00040F8043B51F8043B40F8043B51F8043B17
:103BB00040F8043B51F8043B40F8043B51F8043B07
:103BC00040F8043B51F8043B40F8043B51F8043BF7
:103BD00040F8043B51F8043B40F8043B51F8043BE7
:103BE00040F8043B51F8043B40F8043B51F8043BD7
:103BF00040F8043B51F8043B40F8043B51F8043BC7
:103C000040F8043B51F8043B40F8043B51F8043BB6
:103C100040F8043B403ABDD2303211D351F8043B56
:103C200040F8043B51F8043B40F8043B51F8043B96
:103C300040F8043B51F8043B40F8043B103AEDD205
:103C40000C3205D351F8043B40F8043B043AF9D256
:103C5000043208D0D2071CBF11F8013B00F8013B29
:103C600001D30B8803806046704700BF082A13D336
:103C70008B078DD010F003038AD0C3F10403D21A4E
:103C8000DB071CBF11F8013B00F8013B80D331F882
:103C9000023B20F8023B7BE7043AD9D3013A11F802
:103CA000013B00F8013BF9D20B7803704B7843706D
:103CB0008B7883706046704770B4860746D0541E78
:103CC000002A41D0CAB2034602E014F1FF343BD3CC
:103CD00003F8012B9D07F8D1032C2ED9CDB245EA6C
:103CE00005250F2C45EA054519D903F11002264692
:103CF000103E0F2E42F8105C42F80C5C42F8085C53
:103D000042F8045C02F11002F2D8A4F1100222F091
:103D10000F0204F00F041032032C13440DD91E4679
:103D20002246043A032A46F8045BFAD8221F22F0FE
:103D300003020432134404F003042CB1C9B21C443E
:103D400003F8011B9C42FBD170BC7047144603462C
:103D5000C2E700BF00290CBF022200224FF480639B
:103D600000F000B82DE9F043614C256883B00446AB
:103D70000F4690461E4615B1AB6B002B64D0B8F1D0
:103D8000020F06D0B8F1010F00F29F80002EC0F2A2
:103D90009C80636ED80734D52146284601F088F808
:103DA000216B41B104F14003994202D0284601F051
:103DB000FDF900232363B4F90C300022A261626094
:103DC0001A063AD423F44A6323F00303B8F1020F2E
:103DD000A3811DD001AB6A462146284601F084FC30
:103DE000A3891843A081002E32D1009E304601F0F5
:103DF000F3FC074600286BD0A38943F08003A3811E
:103E000028E0A3899905C7D4A06D01F069FCC3E738
:103E10000025616E002604F1430243F002030120F5
:103E2000A660CE07A38122602261606101D498055B
:103E30003ED5284603B0BDE8F0832169284601F04D
:103E4000B5F9B4F90C30BDE7284601F089F896E7DA
:103E5000002FCBD0AB6B002B33D0009BB4F90C20E0
:103E600027609E421CBF42F40062A281B8F1010F9C
:103E700004BF42F00102A28192B212F0080327614E
:103E800066610ED0D1071AD5656E7642002315F013
:103E90000105A661A36009D00025284603B0BDE84E
:103EA000F083A360656E15F00105F5D19305C0D4CC
:103EB000A06D01F017FC284603B0BDE8F083A660B2
:103EC000F0E7284601F04CF8C7E74FF0FF35B0E7C0
:103ED000DDF80090B14504D0484601F07DFC07466E
:103EE00020B9B4F90C304FF0FF3592E74E4683E726
:103EF000980000202DE9F84F4B6E9C0493462FD577
:103F00009368126853B30E46074602F1080919E98F
:103F100020045FEA9A0817D0043D002401E0A04580
:103F200010D0324655F8041F384601F0BBF8431C48
:103F300004F10104F3D10023CBF80830CBF80430AE
:103F4000BDE8F88FDBF808302AF0030AA3EB0A0378
:103F5000CBF8083009F10809002BD8D10020EAE796
:103F600001F00AFA0023CBF80830CBF80430BDE8A2
:103F7000F88F00BF2DE9F04FADB01D468B4690463F
:103F80000793069018B1836B002B00F0F380DBF8E9
:103F90006430BBF90C00DF0781B202D48E0540F11A
:103FA000FC808C040AD4DBF8643040F4005123F424
:103FB0000053ABF80C10CBF8643089B2080740F11D
:103FC000B380DBF81030002B00F0AE8001F01A0354
:103FD0000A2B00F0B58000230DF170090B931193AB
:103FE00010930393CDF83C90CA46CDF810B098F8E2
:103FF00000304446FBB1252B02D11CE0252B03D019
:1040000014F8013F002BF9D1A4EB08059DB1109BDA
:10401000119ACAF8008001332A44072BCAF80450C9
:10402000119210937ADD002A40F0B084039B109225
:104030002B44CA4603932378002B00F0E083002032
:104040004FF000038DF8373004F10108627805461F
:10405000064603464FF0FF3408F10108A2F12001A3
:10406000582900F2DE82DFE811F02102DC02DC02D6
:104070002902DC02DC02DC02DC02DC02DC02890256
:104080009502DC02A200BD02DC029F01A401A40192
:10409000A401A401A401A401A401A401A401DC02BF
:1040A000DC02DC02DC02DC02DC02DC02DC02DC0220
:1040B000DC02B201DC02DC02DC02DC02DC02DC023B
:1040C000DC02DC02DC02DC029701DC02DC02DC0246
:1040D000DC02DC029B01DC02DC025302DC02DC02BB
:1040E000DC02DC02DC02DC02DC02DC02DC02DC02E0
:1040F0005A021B02DC02DC02DC026E021B02DC0242
:10410000DC027302DC02F50182010902D702DC0243
:104110009A02DC02A700DC02DC022E020AF1080A85
:10412000039B2B44039386E75946069800F0ACFDA9
:1041300018BBBBF80C1001F01A030A2B7FF44BAF2D
:10414000BBF90E30002BFFF646AFDBF86430DB071F
:1041500005D48F0503D4DBF8580001F0C3FA2B46D1
:1041600042465946069800F04DFD039003982DB045
:10417000BDE8F08F00F0F4FE09E7DBF86430D90702
:1041800004D4BBF80C309A0540F1AA844FF0FF33F9
:10419000039303982DB0BDE8F08FDBF8580001F0D1
:1041A0009FFABBF90C0081B2FBE67642079243F01E
:1041B000040398F800204FE708969E0600F150840B
:1041C0000799DD060A4600F1EF83580640F1EC83BB
:1041D0000E8804310027012207914FF000018DF86D
:1041E00037100025611C00F0168123F08001029138
:1041F00056EA070140F01481002C40F05C83002A4D
:1042000040F0B78313F00103059300F057840DF1DC
:10421000B00B30230BF8413D059BA342B8BF2346AA
:1042200001930DB101330193029B13F00203099333
:1042300002D0019B02330193029B13F084030A9383
:1042400040F01782089B019A9D1A002D40F31182BD
:10425000102D40F39084109B119AC44ED64610271F
:10426000A2461946069C07E001F1020C0EF1080E69
:104270000146103D102D11DD481C10320728119207
:104280008EE8C0001090EFDD002A40F0E481103D80
:10429000102D11464FF0010CCE46EDDC5446614620
:1042A000F2462A4407291192CAF80060CAF804505D
:1042B000109100F3EC829DF837500AF1080A481C6F
:1042C000002D40F0DE81099B002B00F0F8810232C6
:1042D0000EA902230728119210908AE80A0040F3E1
:1042E000EA81002A40F08C830A9B802B4FF001006A
:1042F0001146CA4640F0E781089B019D5E1B002ED7
:1043000040F3E181102E9A4D40F35084D44610279B
:10431000A246069C07E001F1020E0CF1080C0146D2
:10432000103E102E11DD481C1032072811928CE827
:10433000A0001090EFDD002A40F09D82103E102E6C
:104340004FF0010E1146CC46EDDC5446E2463244B5
:10435000BEF1070F11928AE86000CDF840E000F34B
:1043600069830AF1080A0EF101007146ABE1089673
:1043700013F0200240F08C8313F0100140F01A83F8
:1043800013F0400200F0168307980A4601460431F4
:1043900006880791002720E7089643F01003E7E717
:1043A000089643F0100308E743F0800398F80020D4
:1043B00052E6A2F13001002618F8012B06EB860622
:1043C00001EB4606A2F130010929F5D946E6089627
:1043D000002840F0088443F010039E0600F14C834F
:1043E000DD0600F1F382580640F1F082079DB5F931
:1043F00000602A46F71704323046394607920028F3
:1044000071F10002C0F25D83611C9DF837504FF0DE
:1044100001027FF4EAAE56EA070100F04D820293F2
:10442000012A00F08C82022A40F05C820B98CB4675
:10443000330906F00F0143EA07733A091E4617468F
:10444000435C0BF8013D56EA0703F1D1A9EB0B03DE
:104450000593E1E6002840F0C083990600F16783E8
:10446000DA0600F1F1805B0640F1EE80079A1368EE
:1044700004320792BDF80C201A80B8E507983D4A2F
:1044800008960B9206687822302104308DF8392086
:1044900043F00203079000278DF8381002229CE6B3
:1044A0000896002899D08DF8375096E798F80020A4
:1044B000002D7FF4D1AD01202025CDE543F001038F
:1044C00098F80020C8E50896002840F09383294911
:1044D0000B919F0600F1E8820798DE06014600F185
:1044E00070825D0640F16D820431068807910027D5
:1044F000D80740F1228256EA070100F01E823021DF
:104500008DF8392043F002038DF83810022264E65A
:104510000896002840F06B8317490B91D9E707995B
:1045200008960A688DF848204FF000000A468DF87A
:104530003700043201200190079205900DF1480BDD
:104540000293002470E643F0400398F8002083E5CE
:1045500098F800206C2A03BF98F8012043F020034C
:1045600008F1010843F0100376E500BF706B4000CE
:10457000806B4000546B4000406B400007990E6810
:104580000A46002E02F10402FFF60FAE079298F8D9
:10459000002061E598F8002001202B255CE50799B3
:1045A0000896D1F800B04FF000028DF837200E1DAC
:1045B000BBF1000F00F0E582671C00F0C4822246C8
:1045C00000215846019301F0DBFB019B002800F01D
:1045D000E582A0EB0B020592079602939DF83750F7
:1045E000002419E698F800202A2A08F1010700F0B3
:1045F000E982A2F130010929B8464FF000043FF6E4
:104600002DAD18F8012B04EB840401EB4404A2F156
:1046100030010929F5D921E543F0200398F800205D
:104620001AE50896002840F0DB82002A00F0E780B7
:1046300001218DF848204FF0000201918DF83720BC
:1046400005910DF1480B7BE7079A13680432079236
:10465000039A1A60CBE40FAA04992046FFF74AFC9C
:10466000002840F039811099119A01F1010CCE46D1
:10467000FFE51099119A481C9DF83750002D3FF422
:1046800022AE01320DF13705012107281192109059
:10469000CAF80050CAF8041040F30881002A40F01C
:1046A000BC81099B002B3FF41FAE0EAB02220846D3
:1046B0001C931D92CA4601460AF1080A01300A9B62
:1046C000802B3FF419AE059BE41A002C2EDD102C34
:1046D000B34D1EDDD6461026069FDDF810A006E07D
:1046E000881C0EF1080E1946103C102C10DD4B1CD6
:1046F0001032072B11928EE860001093F0DD002A33
:1047000065D1103C102C4FF001001146CE46EEDC76
:10471000F246224407281192CAF80050CAF8044011
:10472000109000F385800AF1080A01300599CAF853
:1047300000B00A4407281192CAF80410109040F300
:104740008280002A40F01881029B1092580735D5CC
:10475000089B01995C1A002C40F3E780CA46102C94
:1047600040F3188210998F4E069FDDF810B0102587
:1047700006E0881C0AF1080A1946103C102C11DDCD
:104780004B1C1032072B1192CAF80060CAF8045073
:104790001093EEDD42BB103C102C4FF0010011468F
:1047A000CA46EDDC224407281192CAF80060CAF814
:1047B0000440109051DD002A40F09B81039B089A31
:1047C00001998A42ACBF9B185B1803934EE00FAA75
:1047D00051463846FFF78EFB002840F03F81109984
:1047E000119A481CCE467FE70FAA59463846FFF774
:1047F00081FB60B91099119A481CCA46BDE7119B0C
:10480000DDF810B0002B40F0D48100231093DBF8CA
:10481000643013F0010FBBF80C3002D19A0540F15F
:10482000DE805B063FF5B2AC03982DB0BDE8F08F9B
:10483000002A40F00681059A1D9201231192CDF8BD
:1048400070B01093CA460AF1080A029B590704D5B2
:10485000089B01995C1A002C81DC039B0899019844
:104860008142ACBF5B181B18039372BB00231093EB
:10487000CA46FFF7BCBB0FAA04992046FFF73AFBD4
:1048800050BB1099119A01F1010ECC4648E5002A5F
:1048900040F040819DF83710002900F01B81012273
:1048A0000DF1370110461D921C91CA4601460AF1CE
:1048B000080A013007E5029B012A00F09880022ACD
:1048C0000DD1029300260027B0E50FAA049906989F
:1048D000FFF710FB0028C9D0DDF810B097E702936E
:1048E00000260027494600E05946F20842EA47728E
:1048F000F80806F0070307461646303356EA070263
:1049000001F8013C01F1FF3BEED1029AD6077FF599
:104910009DAD302B3FF49AAD023930230BF8013CAA
:10492000A9EB010305938B4676E4039B089A8A4220
:10493000ACBF9B185B18039398E702224DE4002F4D
:1049400008BF0A2E52D3CB46304639460A220023EE
:1049500001F012FF30320BF8012D304639460023AA
:104960000A2201F009FF06460F4656EA0703EBD17B
:104970006CE50594CB464FE40FAA04990698FFF71F
:10498000B9FA0028A8D1119ACA465EE70FAA04997D
:104990000698FFF7AFFA00289ED1CA46FFF7C0BBC2
:1049A000806B4000706B4000043116680791012253
:1049B000002712E407980146043106680791002792
:1049C0000BE40E6804310791002791E507990E6802
:1049D0000A46F71704320792304639460FE5DBF8EE
:1049E000580000F07FFEBBF80C301AE7029B0293E0
:1049F0000DF1B00B303601230BF8416D05930BE43C
:104A00000FAA04990698FFF775FA00287FF464AF9F
:104A10001099119A481CCA4651E60FAA04990698A3
:104A2000FFF768FA00287FF457AF1099119A481CD5
:104A3000CA4648E4002A40F0918001201146CA4647
:104A400041E60FAA04990698FFF754FA00287FF46C
:104A500043AF1098119A0130CA4667E6D346D6E6AE
:104A6000079E073626F0070202F10801D2E9006727
:104A700007910122FFF7B1BB079E073626F0070614
:104A8000D6E9000106F10802079206460F46B6E491
:104A9000079E073626F0070202F10801D2E90067F7
:104AA00007910022FFF799BB079E073626F0070102
:104AB00001F108000790D1E9006719E5CB46FFF73F
:104AC000ABBB2D25764267EB47078DF837500122A7
:104AD000FFF788BB099BB3B911460120CA46F2E52E
:104AE000DBF8580000F0FEFD4FF0FF330393FFF7B3
:104AF00050BB0FAA04990698FFF7FCF900287FF431
:104B0000EBAE119AA9E60EAB02221C931D92012076
:104B1000CA46D0E50FAA04990698FFF7EBF90028DA
:104B20007FF4DAAE1099119A481CCA46A4E5079A98
:104B300003991368CD170846043229460792C3E942
:104B40000001FFF754BA58460796029301F0D8FBCC
:104B5000002405909DF83750FFF75EBB0FAA04991B
:104B60000698FFF7C7F900287FF4B6AE1099119A9E
:104B7000481CCA46A7E51099119A204E0131FFF74B
:104B800090BB062C28BF0624059407960194DFF8F5
:104B900070B0D5E41098194E013003E605949DF8E5
:104BA0003750079602930446FFF736BB8646FFF759
:104BB000CEBB06980FAA5946FFF79CF900283FF490
:104BC00024AE24E6079998F801200C68043144EAE1
:104BD000E474B8460791FFF73FBA8DF837503CE4CC
:104BE0008DF8375021E58DF83750FFF7F4BB8DF87D
:104BF000375091E48DF8375069E400BF706B400086
:104C0000686B40002DE9F0410C46ADF58D6D89894A
:104C1000666EE589199621F002010646E069ADF855
:104C20000C1017464FF48061626AADF80E5098463A
:104C30001AAD0023079016A80992069300950495D3
:104C40000291059100F048FD43463A4669463046D8
:104C5000FFF790F9051E07DB3046694600F028F99A
:104C6000002818BF4FF0FF35BDF80C305B0603D5A8
:104C7000A38943F04003A381169800F02FFD284636
:104C80000DF58D6DBDE8F08138B5304B1B680546DC
:104C90000C4613B19A6B002A38D0B4F90C2093B2A9
:104CA00018070CD52069A8B113F001021ED0636962
:104CB00000225B42A361A260F0B1002038BDD9069A
:104CC0003CD5580726D4206942F00803A3819BB243
:104CD0000028E9D103F42072B2F5007FE4D0284621
:104CE000214600F02FFDA3892069DDE7990758BF11
:104CF0006269A2600028E0D1B4F90C301A06DDD553
:104D000043F04003A3814FF0FF3038BD184600F058
:104D100027F9C2E7216B51B104F14003994204D055
:104D2000284600F043FAB4F90C2000232363002343
:104D30002069636022F024022060C5E742F040024F
:104D400009232B604FF0FF30A28138BD980000206E
:104D5000024B13B1024800F005B870470000000094
:104D6000D14F4000002301461A46184601F0DCBB33
:104D7000B1F90C309AB22DE9F0410D461107804689
:104D80003AD46A6843F40063002AAB816FDDAC6AF1
:104D9000002C49D000229BB2D8F80060C8F800204F
:104DA00013F4805267D02A6D5F0705D569682B6BB5
:104DB000521A0BB1EB6BD21A0023E9694046A047A7
:104DC000441C3CD0B5F90C302A692A6023F40063F6
:104DD0000022AB81DB046A6047D4296BC8F800600D
:104DE00011B305F14003994202D0404600F0DEF9CC
:104DF00000202863BDE8F0812E69AEB12C682E60DA
:104E000091070CBF6B690023A41BAB600AE023462B
:104E100032466F6AE9694046B8470028A4EB0004AF
:104E2000064404DD002CF2DC0020BDE8F081AB89F3
:104E300043F04003AB814FF0FF30BDE8F081D8F87C
:104E400000401D2CF3D8194BE340DB4313F0010362
:104E5000EDD1B5F90C206B6022F400632969AB81B8
:104E6000DA042960B9D5002CB7D12865B5E7EA6B1B
:104E7000002A8CDCD8E70123E9694046A047431C9F
:104E8000024602D0AB89AC6A8EE7D8F80030002B1E
:104E9000F8D01D2B01D0162B02D1C8F80060C3E753
:104EA000AB8943F04003AB81BDE8F08101004020B5
:104EB00038B50D46044608B1836BBBB1B5F90C009B
:104EC00088B16B6EDB0701D4810517D520462946D2
:104ED000FFF74EFF6B6EDA07044602D4AB899B05E1
:104EE00007D5204638BD0446204638BD00F038F8C6
:104EF000E4E7A86D00F0F6FB204638BDA86D00F091
:104F0000EFFBE3E7014900F0AFBB00BF11664000D3
:104F100010B5002304468181C28103604360836031
:104F20004366036143618361194608225C30FEF7E2
:104F3000C3FE07480749084A084B2062E4616162E2
:104F4000A262E36204F15800BDE8104000F0C4BB67
:104F50007162400095624000D1624000F162400001
:104F600010B50446124800F0BBFBA26BD2B904F5A1
:104F70003B731048C4F8E8320321C4F8E022E06330
:104F8000C4F8E41260680421FFF7C2FF012209217E
:104F9000A068FFF7BDFF02221221E068FFF7B8FF0B
:104FA0000123A3630248BDE8104000F09BBB00BF93
:104FB000A4B80120054F4000014800F091BB00BF9C
:104FC000B8B80120014800F08DBB00BFB8B801207F
:104FD00038B50A4C0A4D641BA4100AD004F1804372
:104FE000013B05EB8305013C55F804399847002C3B
:104FF000F9D1BDE8384001F05FBE00BFC86C400089
:10500000C46C40002DE9F04782B0804689461446C2
:1050100000F054FB012836D04A4604F15C0301A994
:10502000404601F033FA421C064625D0A8B39DF84D
:1050300004E000250DF1040A09E023685A1C2260EF
:1050400083F800E00135B54227D215F80AE0A368DD
:10505000013B002BA360F0DAA769BB4271462246F0
:10506000404602DBBEF10A0FE7D101F0B7F9431C5D
:10507000E8D102B0BDE8F087A38943F04003A381E3
:1050800002B0BDE8F08709F1FF33FE2BC4D85FFA08
:1050900089FE06468DF804E0CBE7484602B0BDE83D
:1050A000F08700BF30B5536E13F0010FB2F90C302A
:1050B000144683B005469AB201D190051CD59004E0
:1050C00006D4626E43F4005342F40052A381626638
:1050D00028462246FFF796FF636EDA07054602D49C
:1050E000A3899B0502D5284603B030BDA06D00F012
:1050F000F9FA284603B030BDA06D019100F0F0FA36
:10510000B4F90C3001999AB2D9E700BFF8B5244F31
:105110000C46064600F0E8FEBB685D68C4F57E619B
:105120000F3125F00305294421F47F6121F00F019F
:10513000A1F58054B4F5805F07DB0021304601F013
:1051400085F8BB682B44984204D0304600F0D2FE6C
:105150000020F8BD6142304601F078F801300DD0F2
:10516000104BBA6819682D1B45F001053046091B24
:105170005560196000F0BEFE0120F8BD00213046E8
:1051800001F064F8BA68831A0F2BDEDD064C05497E
:10519000246843F00103001B53600860D5E700BF9B
:1051A0003806002034380120400A0020002944D06D
:1051B0002DE9F0410D46804600F096FE55F8047C3E
:1051C000694927F00103A5F10804E2188E685068C8
:1051D000B24220F003005ED0FE0750600BD455F8B9
:1051E000087CE41B01F1080EA56875453B446DD0B1
:1051F000E768EF60BD6015186D68ED073ED543F0B8
:1052000001026260E350B3F5007F17D2DB08581C3F
:105210009A104D6851F83070A7600123934001EB5C
:10522000C0022B43083AE2604B6041F83040FC601A
:105230004046BDE8F04100F05DBE70475A0A042ABE
:1052400052D89A0902F13907FF0002F13805C8194E
:10525000CA59083890424FD0516821F003018B425F
:1052600032D292689042F7D1C368A060E3609C603C
:10527000C4604046BDE8F04100F03CBE95683B4F3D
:10528000BD42034440D0D068E86043F0010285602D
:105290006260E350B7E7FF07034407D455F8082CD2
:1052A000A41A1344A068E268C2609060304A126891
:1052B00043F00100934260608C60B9D32D4B4046AF
:1052C0001968FFF723FFB3E71046CDE711184968C7
:1052D000C90744D49168D268CA60034443F001000E
:1052E00091606060E350A3E7142A16D802F15C07CE
:1052F000FF0002F15B05AAE7AA1001234D68934065
:105300002B434B600346B0E743F001024C610C6154
:10531000E560A5606260E3508AE7542A06D81A0B5C
:1053200002F16F07FF0002F16E0590E7B2F5AA7F68
:1053300006D8DA0B02F17807FF0002F1770586E75D
:1053400040F25450824206D89A0C02F17D07FF00C9
:1053500002F17C057BE74FF47E777E2577E743F00B
:1053600001016160136063E73806002040060020F9
:10537000440A0020643801209368002B73D02DE983
:10538000F04F8B8983B00C4619070090164626D53E
:10539000226922B313F0020035682CD04FF00009C7
:1053A000B04FC846B246B84543464A4628BF3B467A
:1053B0000098B8F1000F50D0E169666AB047002844
:1053C00058DDDAF808301B1A8144A8EB0008CAF847
:1053D0000830002BE7D1002003B0BDE8F08F214654
:1053E0000098FFF751FC002840F03381A38935680D
:1053F00013F00200D2D113F0010945D14F460196B6
:1054000037B39A05D4F8088040F183804745C346F6
:10541000C0F0AB8013F4906F40F0AC802068BA46C7
:105420005A46494600F0FCFCA2682368A2EB080239
:105430005B44A2602360019A9368A3EB0A03D14402
:10544000A7EB0A079360002BC5D0A389002FD8D102
:10545000D5F800906F680835D2E7D5F80090D5F8F8
:10546000048008359FE70020704721460098FFF729
:105470001FFD70B3B4F90C3043F040034FF0FF3020
:10548000A38103B0BDE8F08F814633464E46A8465F
:105490009A464D464EB380B3206823696269B14590
:1054A000CB4628BFB34698425F4604D9A36813444D
:1054B0009B4500F3A68093454BDB1346676AE16981
:1054C00000982A46B847071ED4DDB9EB0709CCD0AF
:1054D0000120DAF80830DB1B3D44F61BCAF808301F
:1054E000002B3FF478AF002ED5D108F1080313E963
:1054F000600098460833002EF9D032460A2128462B
:1055000000F03EFC002800F0A1800130A0EB05096E
:10551000C2E720682369984202D863699F425DD23E
:10552000B84528BFB8464246494600F079FCA36812
:105530002268A3EB08034244A36022600BB1C24679
:1055400079E721460098FFF7B3FC002892D1C246C4
:1055500071E75A46294600F063FCA2682368A2EB73
:105560000B025B44A2602360AFE72068B846BA46EE
:10557000BB4655E762692068216902EB4208A0EB4F
:10558000010A08EBD8780AF101004FEA68083844AC
:105590004045424684BF804642465B0544D511469D
:1055A000009800F021F98346002855D05246216921
:1055B000FEF7E8FAA38923F4906343F08003A38104
:1055C0000BEB0A00A8EB0A03C4F810B0C4F814806F
:1055D0002060A360B846BA46BB4621E76FF00041A1
:1055E000B94228BF39464A4691FBF3F10098666AF2
:1055F00003FB01F3E169B047B0F1000A3FF71BAFCD
:1056000038E71A462946019300F00AFC2268019BFC
:1056100000981A4422602146FFF74AFC019B0028AB
:105620007FF428AF1F4650E7009800F069FC8346DE
:105630000028C5D1009D21692846FFF7B7FDB4F9C0
:105640000C300C2223F080032A6015E706F10109D3
:1056500022E74FF0FF30BFE6009A0C231360B4F945
:105660000C3009E700FCFF7F2DE9F84310F538778F
:105670001FD0884606464FF000097D68BC68013D92
:1056800011D4A389012B05F1FF3508D9B4F90E30E7
:1056900001332146304602D0C04749EA00096B1C5D
:1056A00004F16804EDD13F68002FE6D14846BDE81B
:1056B000F883B9464846BDE8F88300BF044B054A65
:1056C0001B685B6B002B08BF134693F828017047DB
:1056D00098000020CC040020704700BF704700BF36
:1056E000704700BF704700BF70B50C46B1F90E108F
:1056F000002990B015461E4614DB01AA00F0EAFF0F
:1057000000280FDB029A02F47042A2F50052B2FAAE
:1057100082F252094FF480634FF4006032602B60D4
:1057200010B070BDA289002312F08000336004D055
:10573000402218462A6010B070BD4FF480632B6081
:1057400010B070BD8A8992070B4606D501F143025D
:1057500001211A601A6159617047F0B583B001AB3D
:105760006A460C460646FFF7BFFF009905463046DD
:1057700000F03AF8B4F90C30D8B1019A154F0099FD
:10578000F76343F08003A3812060206161611AB94F
:105790002B43A38103B0F0BD3046B4F90E1000F0E6
:1057A000ADFFA0B1A38923F0030343F001031BB2B3
:1057B000EEE79A05EED423F0030304F1430243F02D
:1057C00002030121A381226022616161E2E7B4F951
:1057D0000C30DDE7054F4000024B0146186800F031
:1057E00003B800BF980000202DE9F04F01F10B062F
:1057F000162E83B0054640F29E8036F0070600F173
:10580000BD80B14200F2BA8000F06EFBB6F5FC7FBD
:10581000C0F09382730A00F0B880042B00F2798103
:10582000B30903F1390003F1380EC300BF4F3B4405
:10583000A3F108015C68A14206D10CE0002A80F2C5
:10584000AA80E468A14206D0636823F003039A1B90
:105850000F2AF3DD70463C69DFF8E4E2744500F09E
:10586000AB81636823F003039A1B0F2A00F3908136
:10587000002AC7F814E0C7F810E080F29D80B3F565
:10588000007F80F06181DB0803F1010C99107A68D8
:1058900057F83C80C4F8088001238B4007EBCC010B
:1058A00013430839E1607B6047F83C40C8F80C407E
:1058B0008210012494409C4200F28B801C4206D14D
:1058C00020F0030064001C4200F10400FAD007EB52
:1058D000C009CC468046DCF80C309C4507D16DE110
:1058E000002A80F27B81DB689C4500F06781596863
:1058F00021F003018A1B0F2AF2DDD3F80CC0D3F884
:10590000088000939C19284646F0010642F00105E4
:105910005E60C8F80CC0CCF808807C613C61C4F8BB
:105920000CE0C4F808E065605A5000F0E3FA009B10
:1059300003F108041EE0102920D800F0D5FA102643
:1059400018230220794F3B44A3F108025C6894427B
:1059500000F03D816368E168A66823F003032344F7
:1059600028465A68F16042F001028E605A6000F0E9
:10597000C1FA0834204603B0BDE8F08F00240C23A0
:1059800020462B6003B0BDE8F08F40204FF4007339
:105990004FF03F0E4AE72344E1685A68A66842F098
:1059A0000102F16028468E605A6000F0A3FA0834C4
:1059B000204603B0BDE8F08F234428465A6842F0E1
:1059C00001025A6000F096FA0834204603B0BDE8A0
:1059D000F08FBC68636823F00308B04504D3A8EBDC
:1059E00006030F2B00F38580DFF85891504BD9F850
:1059F00000201B680132334404EB080A00F0558193
:105A000003F580530F3323F47F6B2BF00F0B5946B4
:105A1000284600F01BFC411C024600F0FC80824539
:105A200000F2F780434B19685944196000F04D812A
:105A3000D9F8000001301BBFA2EB0A0A5144C9F893
:105A40000020196012F0070100F01581C1F1080073
:105A5000C1F580510244083102EB0B09C9F30B096F
:105A6000A1EB0909494628460193009200F0EEFB9C
:105A7000431C9DE80C0000F04381801A484440F02C
:105A800001001968BA604944BC425060196017D0DF
:105A9000B8F10F0F40F2FB806068A8F10C0222F011
:105AA000070204EB020E00F001004FF0050C10435A
:105AB0000F2A6060CEF804C0CEF808C000F217814B
:105AC0001D4BBC681A68914288BF19601B4B1A684D
:105AD0009142626888BF196022F003029642A2EBED
