:020000040040BA
:10000000785202206D4B40006B4B40006B4B400020
:100010006B4B40006B4B40006B4B400000000000FE
:100020000000000000000000000000006508400023
:100030006B4B40000000000021094000790940009E
:100040006B4B40006B4B40006B4B40006B4B4000D8
:100050006B4B40006B4B40006B4B40006B4B4000C8
:10006000B54440006B4B40000000000029044000F4
:100070003D0440006B4B40006B4B40006B4B40001D
:100080006B4B40006B4B40006B4B40006B4B400098
:100090006B4B40006B4B40006B4B40006B4B400088
:1000A0006B4B40006B4B40006B4B40006B4B400078
:1000B0006B4B40006B4B40006B4B4000000000005E
:1000C0000000000000000000000000000000000030
:1000D0000000000000000000000000000000000020
:1000E0000000000000000000000000000000000010
:1000F0000000000000000000000000006B4B40000A
:100100006B4B40006B4B4000000000000000000003
:1001100000000000000000000000000000000000DF
:1001200000000000000000000000000000000000CF
:1001300000000000000000000000000000000000BF
:10014000000000000000000010B5054C237833B912
:10015000044B13B10448AFF300800123237010BD9A
:10016000280D0020000000000CFD40000C4B43B1A6
:100170000C480D4910B5AFF300800C48036823B953
:1001800010BD0A48036833B97047094B002BF7D0FC
:10019000BDE810401847064B002BF5D0184700BFAC
:1001A000000000000CFD40002C0D00200CFD400064
:1001B000000000002DE9F04180B90C469046002A6D
:1001C0000FDD8F18084E094D306821462B6898477F
:1001D0000134BC42F8D14046BDE8F0814FF0FF3811
:1001E000F9E78046F7E700BFE0A101206CA10120FC
:1001F0004264B1F1805F1FD014D891B1B1F1006FAA
:1002000023D110B4016F046FD34321401C46194021
:100210000167436F416F0B402340436742605DF8C5
:10022000044B7047B1F1405FFBD0B1F1605FF8D093
:10023000B1F1205F09D17047036F13430367436F28
:10024000416F0B4023EA02034367426070474164F9
:1002500012F0010F14BF4166016612F00A0F14BFBD
:100260000162416212F0020F07D112F0080F18BFAD
:10027000C0F88410416101607047C0F88010F9E750
:1002800010B4019C41644CB901664BB101654AB997
:100290004163016101605DF8044B70474166F4E71A
:1002A0004165F4E70163F4E770B582B00546164690
:1002B0001C46B1F1205F2AD007D8B1F1006F1AD0E7
:1002C000B1F1805F17D000201FE0B1F1405F02D094
:1002D000B1F1605FF7D104F001030093C4F3800330
:1002E000B1F1605F14BF00220122314628460B4C59
:1002F000A047012009E032462846094B984714F0F0
:10030000010F14BF6E662E66012002B070BD1A4642
:100310003146044B98470120F7E700BF81024000B7
:10032000F10140004F02400012F0100F10D0C0F851
:10033000B01012F0200F14BFC0F8D410C0F8D010C5
:1003400012F0400F14BFC0F8C010C0F8C4107047BE
:10035000C0F8B41070470164704741647047C06CC6
:100360007047806C704700002DE9F04104468846D4
:100370000E4B9847054620460D4B9847054013D035
:100380000C4C04F1600603E0B4420DD010345DB1B2
:1003900020684045F8D161682942F5D0E368984764
:1003A000636825EA0305EFE7BDE8F0815F034000DD
:1003B00063034000440D0020F8B5184C2668062E53
:1003C00029D84FF0000C6446154F04E00134E4B224
:1003D000A446A64209D3A64625017D598D42F5D1F2
:1003E00007EB04156D689542F0D10D4D4FEA0E1ED6
:1003F00005EB0E0445F80E106260A3600699E160FB
:100400000136664504BF05490E6011461A46054B84
:1004100098470020F8BD0120F8BD00BFB40D0020B2
:10042000440D00202903400008B50B210148024B70
:10043000984708BD000E0E406903400008B50C2126
:100440000148024B984708BD00100E406903400068
:10045000F8B505460C461746184B984706464FF028
:10046000FF312846164B98472846164B9847E2B26C
:1004700002F01F030121994063099B0003F16043CF
:1004800003F56143C3F88010C3F88011002C0DDB25
:100490003F01FFB204F1604404F5614484F8007345
:1004A000196031462846084B9847F8BD02F00F0204
:1004B0003F01FFB205488754F2E700BF63034000E5
:1004C0005B0340005F0340005703400014ED00E071
:1004D000436823F4403343604368090401F4403126
:1004E00019434160704710B443F69923046914F02E
:1004F000010F03D1013BF9D1012009E08368406875
:1005000010F0020F1CBFC3F3034010700B800020DB
:100510005DF8044B704730B443F69924056915F033
:10052000020F03D1013CF9D101200CE0446814F022
:10053000020F06D0120402F4702211430BB141F0F5
:100540008071C160002030BC704732B900EB81007F
:10055000036B23F001030363704700EB8100036B1F
:1005600043F001030363704732B900EB8100036B72
:1005700023F002030363704700EB8100036B43F039
:1005800002030363704700EB81010B6B23F0F00360
:100590000B630B6B1A430A6370477AB110B41446AD
:1005A00000EB81010B6B23F47F430B630A6B42EA80
:1005B00004220A6300205DF8044B70474FF0FF30BF
:1005C000704710B400EB8101086B80B208630C6BBC
:1005D00044EA036343EA02430B635DF8044B70474C
:1005E00010B40B01934214D9C9004B0803EBC202AB
:1005F000B2FBF1F2D3085C1E4FF6FE718C4201D9BA
:10060000012017E0416841F4002141600CE0012025
:1006100010E0590801EBC202B2FBF3F2D3085C1EF2
:100620004FF6FE718C42F2D8120402F4E0221A4313
:10063000026200205DF8044B70470000084BC0F8D0
:10064000E4300023436043628362882303602423F1
:1006500003604FF4807303604FF40023036070471E
:100660000041535570B505460C4616460F4B98474A
:1006700000220F4B1A60A4B13246216828460D4B68
:100680009847024678B96368A1680B4321690B4318
:10069000E1680B4306490B6069680B436B601046C9
:1006A00070BD0122FBE70122F9E700BF3D064000D3
:1006B000B80D0020E105400040230360704710237F
:1006C000036070478160704740697047436913F069
:1006D000020F1DBFC1F30801C16100200120704756
:1006E000436913F0010F05D08369C3F308030B605E
:1006F0000020704701207047184B98421FD003F527
:10070000A03398421DD003F5804398421BD0A3F537
:100710004043984219D003F58043984217D0A3F57F
:10072000A033984215D003F56033984213D0A3F557
:100730003F430B4A90420CBF1846002070470948BF
:100740007047094870470948704709487047094889
:100750007047094870470948704700BF00C2004011
:100760000042034000C30040000302400043024037
:100770000083014000C301400083004000030440A7
:1007800000F1080343604FF0FF328260C3600361F1
:1007900000230360704700230361704743684B6088
:1007A0009A688A609A6851609960086103680133A9
:1007B0000360704730B40D68B5F1FF3F02D000F11F
:1007C000080202E0026904E01A4653681C68A54268
:1007D000FAD253684B6099608A605160086103687F
:1007E0000133036030BC70470369426881689160DF
:1007F0008268416851605A68904204BF82685A60BA
:1008000000220261186801381860704705480068C6
:10081000006880F3088862B6BFF34F8FBFF36F8F15
:1008200000DF00BF08ED00E0DFF80C00016841F4D4
:10083000700101607047000088ED00E04FF08073A8
:1008400040F8043C40F8081C054B40F80C3C40F8CC
:10085000202C6FF0020340F8243C4438704700BF5E
:10086000AD084000064B19680868B0E8F04F80F307
:100870000988BFF36F8F4FF0000080F31188704735
:10088000D83901204FF08052034B1A60BFF34F8FCD
:10089000BFF36F8F704700BF04ED00E0EFF31180EE
:1008A0004FF0A00181F311887047002008B5054B77
:1008B0001B68B3F1FF3F02D0034B9847FEE7024BA2
:1008C0009847FEE7940000209D08400008B5054BBE
:1008D0009847054A136801331360BFF34F8FBFF386
:1008E0006F8F08BD9D0840009400002080F31188A0
:1008F0007047000008B5074B1B683BB1013B054A38
:10090000136013B90020044B984708BD034B984768
:10091000FEE700BF94000020ED0840009D08400065
:10092000EFF30980BFF36F8F124B1A681EF0100FA0
:1009300008BF20ED108A20E9F04F10604DF8043D0B
:100940004FF0A00080F3118800F066FF4FF0000028
:1009500080F3118808BC19680868B0E8F04F1EF0F1
:10096000100F08BFB0EC108A80F30988BFF36F8FB7
:10097000704700BFD839012008B5064B9847064B91
:10098000984718B14FF08052044B1A600020044B76
:10099000984708BD9D0840006115400004ED00E047
:1009A000ED08400041F63F72024B1A600722043BFB
:1009B0001A60704714E000E000B583B0254B1A7848
:1009C000D2B20192FF221A701B78DBB28DF803308D
:1009D0009DF8033003F0A0031F4A137007221F4B3A
:1009E0001A609DF8033013F0800F10D0062200E04B
:1009F0000A469DF803305B00DBB28DF803309DF8AA
:100A00000330511E13F0800FF2D1144B1A60134AB9
:100A100013681B0203F4E0631360019BDBB20D4A11
:100A200013700F4B1A6842F470021A601A6842F091
:100A300070421A600B4B984700220B4B1A600B4B0D
:100A400098470B4A136843F040431360094B98479B
:100A5000094B984700E400E0BC0D0020C00D0020C9
:100A600020ED00E0A5094000940000202908400086
:100A700034EF00E00D084000AD08400008B5EFF38A
:100A800005830F2B09D90B4A9B5CDBB20A4A12780B
:100A90009A4202D9094B9847FEE7094B1B6803F4B9
:100AA000E063084A1268934200D808BD034B984798
:100AB000FEE700BFF0E300E0BC0D00209D08400011
:100AC0000CED00E0C00D002070B504462A4B98479D
:100AD0002A4B1B6883B1002C48D004F1080111F0A7
:100AE000070F1CBF21F0070108314A1E244B9A4210
:100AF0003ED8244C236812E0234B23F00703214AFD
:100B0000136000205060214A2149516010605960F3
:100B10001A600122194B1A60DDE71C4613465A6819
:100B2000914202D91A68002AF7D1184A934221D07B
:100B3000256808351A6822605A68521A102A0CD99A
:100B40005E187260596074680E4900E011460A68C8
:100B500050688442FAD832600E600E490A685B68B9
:100B6000D21A0A600C4B9847284670BD0025F9E759
:100B70000025F7E70025F5E731154000CC390120C5
:100B8000F62B0100D0390120CC0D0020C439012002
:100B9000F82B0100980000208D164000D0B170B5F0
:100BA0000546A0F108060C4B984755F8044C0B4A33
:100BB00000E01A46136859688C42FAD845F8083C98
:100BC0001660074A55F8043C11680B441360054B46
:100BD000984770BD704700BF31154000D0390120E3
:100BE000980000208D16400038B504461546026C6A
:100BF0005AB903681BB1A36B0133A36338BD4068C6
:100C0000144B984700236360F5E765B98068124B81
:100C10009847A368226C1344A36062689342EAD3A6
:100C20002368A360E7E7C0680B4B9847226C5242E9
:100C3000E3681344E36021688B4202D263681A447C
:100C4000E260022DD7D1A36B002BD4D0A36B013B64
:100C5000A363D0E7411B40005D7B400010B582B02C
:100C60000190C46C7CB10A46A16BE36B99420DD232
:100C7000A16B8B4215D901A920460B4B9847636A9B
:100C80003BB900200EE0094B9847FEE7074B984719
:100C9000FEE704F12400064B9847003018BF0120FE
:100CA00000E0002002B010BDE90B40009D084000AC
:100CB0005D19400038B50346006858B11A6CDC680D
:100CC0001444DC605D68AC4228BFD8600846D9682F
:100CD000014B984738BD00BF5D7B4000F8B5044626
:100CE000224B9847A36C002B1BDD214D214F224E38
:100CF0000BE0636AABB104F12400B04778B9A36C90
:100D0000013BA364A36C002B0BDDE36C002BF0D044
:100D100000212046A8470128F1D1B847EFE7B8479E
:100D2000EDE74FF0FF33A364144B98470F4B984700
:100D3000636C002B14DD236993B104F110060E4D92
:100D40000C4F07E0636C013B6364636C002B07DDB1
:100D500023692BB13046A8470028F3D0B847F1E704
:100D60004FF0FF336364054B9847F8BDCD08400052
:100D70005D0C4000851A40005D194000F5084000F8
:100D800038B508B30D460446164B98472268216CC7
:100D9000E36B03FB01F3D01860600020A063A26046
:100DA0005B1A1344E3604FF0FF336364A3648DB9AF
:100DB00023692BB104F110000B4B9847012806D092
:100DC0000A4B9847012038BD094B9847FEE7094B6D
:100DD0009847F5E704F11000074DA84704F12400F7
:100DE000A847EDE7CD0840005D194000F508400038
:100DF0009D084000850840008107400070B5D0B1D3
:100E00000D46064650200D4B9847044698B105FB09
:100E100006F00130094B9847206048B1E66325642D
:100E200001212046064B98470023E364204670BD0D
:100E30002046044B9847044B9847FEE7C90A4000F8
:100E4000810D40009D0B40009D0840002DE9F04FB2
:100E500085B0019258B189461D46044651B1022D14
:100E60000ED1E36B012B0BD0464B9847FEE7454B69
:100E70009847FEE7036C002BF1D0424B9847FEE702
:100E8000414B984720B9019B4BB13E4B9847FEE739
:100E90004FF000083D4FDFF820A13D4E31E04FF00C
:100EA0000008F7E72A46494620463A4B9847E36C44
:100EB0006BB129462046384B9847012801D1374B62
:100EC0009847334B9847012005B0BDE8F08F636A1F
:100ED000002BF6D004F12400314B98470128F0D1C3
:100EE0002E4B9847EDE72A4B98470020ECE702A8E5
:100EF000D04713E020462B4B98472B4B98474FF099
:100F00000108B847A26BE36B9A42CBD3022DC9D03C
:100F1000019B002BE7D0B8F1000FE8D0B047234B7E
:100F20009847B847636CB3F1FF3F04BF0023636485
:100F3000A36CB3F1FF3F04BF0023A364B04701A932
:100F400002A81B4B9847B0B9B847D4F838B0D4F8CA
:100F50003C80B047C345CDD1019904F11000154B39
:100F6000984720460F4B98470F4B98470028C6D10B
:100F70000A4B9847C3E720460A4B98470A4B9847C5
:100F80000020A1E79D0840009D1A4000CD084000C8
:100F9000F5084000E90B40005D0C4000850840006A
:100FA0005D194000DD0C40008D16400031154000F9
:100FB0000D1A4000BD184000E91940002DE9F0412C
:100FC00060B1884615461E46044651B1022E43D1F3
:100FD000E36B012B2CD0284B9847FEE7264B984714
:100FE000FEE7036C002BF1D0234B9847FEE7E36C40
:100FF0004BB131462046214B984701280ED17DB197
:1010000001242C6032E0636A63B104F124001C4BBC
:10101000984748B155B101242C6027E0012425E010
:10102000012423E0012421E001241FE001241DE02C
:10103000144B9847104B98470746A36B32464146DE
:101040002046114B9847A36CB3F1FF3FCFD0A36C60
:101050000133A364012409E00A4B9847064B9847E3
:101060000746A36BE26B9A42E8D800243846074B48
:1010700098472046BDE8F0819D0840005D0C400087
:101080005D1940007D0A4000E90B4000ED0840007A
:101090002DE9F04784B0019258B18846994604463C
:1010A00051B14B4B984768B9019B8BB1494B98475D
:1010B000FEE7484B9847FEE7036C002BF1D0454B09
:1010C0009847FEE70027444EDFF83CA1434D3EE041
:1010D0000027F8E7E56841462046414B9847B9F1BB
:1010E000000F17D1A36B013BA363236813B93D4BDA
:1010F0009847606023693BB104F110003A4B984770
:10110000012801D1394B9847344B9847012004B04E
:10111000BDE8F087E560636A002BF5D004F1240098
:10112000314B98470028EFD0304B9847ECE72B4BDA
:1011300098470020EBE702A8D04711E0B04760686D
:101140002B4B9847A84728E0284B98470127B047E2
:10115000A36B002BBED1019B002BE8D0002FEAD05F
:10116000A847244B9847B047636CB3F1FF3F04BFD7
:1011700000236364A36CB3F1FF3F04BF0023A364A7
:10118000A84701A902A81C4B9847C8B9B047A76B4C
:10119000A8477FB92368002BD0D0019904F124001F
:1011A000164B98472046164B9847164B98470028F1
:1011B000CCD1C9E72046124B9847124B9847C5E758
:1011C00020460F4B98470F4B984700209FE700BFE2
:1011D0009D1A40009D084000CD084000F5084000E1
:1011E000B50C4000911A40005D1940008508400090
:1011F000BD1A4000311540000D1A4000BD184000D6
:10120000DD0C40008D164000E919400038B5044659
:101210000D460E4B9847636CB3F1FF3F04BF0023AC
:101220006364A36CB3F1FF3F04BF0023A364084BC6
:101230009847A36B1BB12046064B984738BD2946FB
:1012400004F12400044B9847F5E700BFCD084000A7
:10125000F5084000DD0C400019194000084B1B68E0
:101260001B683BB1064B1B68DB68DB685A68054BA3
:101270001A6070474FF0FF32024B1A60704700BF90
:10128000DC3901209C00002010B50F4B1B68586012
:101290000E4B1B6898420ED304460D4B18680A4B40
:1012A000196804310B4B98470B4B1B689C423CBFA1
:1012B000094B1C6010BD094B1868034B19680431B9
:1012C000044B984710BD00BFD8390120CC3A01200B
:1012D000DC390120B50740009C000020E0390120E6
:1012E0002DE9F84F0A9EDDF82C90DDF8308040B1F2
:1012F0000D4617469B468246042E05D95B4B984700
:10130000FEE75A4B9847FEE74420594B984704465E
:10131000002858D0B8F1000F4CD0C0F8308007F149
:101320008047013F236B03EB870323F007072B78EC
:1013300084F834302B785BB12B4604F13402093544
:10134000597802F8011F13F8011F09B1AB42F7D118
:10135000002384F83D30E662266404F10408404628
:10136000444DA84704F11800A8472461C6F10503BD
:10137000A36164625A46514638463F4B9847206005
:10138000B9F1000F01D0C9F800403C4B98473C4AE6
:101390001368013313603B4B1B68C3B13A4B1B68A6
:1013A000002B3BD1374B1B68DB6A9E4224BF354B79
:1013B0001C6033E0B8002E4B984720630028AED164
:1013C0002046324B98474FF0FF30BDE8F88F2D4B49
:1013D0001C601368012B21D12D4F38462D4DA84795
:1013E00007F11400A84707F12800A84707F13C00BF
:1013F000A84707F15000A847DFF8C8904846A8471B
:10140000254F3846A8472548A8472548A8472548D6
:10141000A847254BC3F80090244B1F60244A13684B
:1014200001331360E06A234B1B68984284BF214B51
:10143000186000EB80004146154B03EB80001E4B0B
:1014400098471E4B9847104B1B684BB10D4B1B68C0
:10145000DB6A9E4207D91A4B98470120BDE8F88FF6
:101460000120BDE8F88F0120BDE8F88F9D084000FD
:10147000C90A4000970740003D084000CD084000E1
:10148000483A0120D8390120A03A01209D0B4000A4
:10149000E439012081074000743A01208C3A012090
:1014A000B83A0120A43A0120DC390120E0390120BA
:1014B000543A01205C3A01209D074000F5084000A5
:1014C00085084000603A012010B584B000230393E2
:1014D00002930193009382220D490E480E4CA047BF
:1014E000012802D080B104B010BD0C4B98470128F0
:1014F000F8D10B4B984701220A4B1A6000220A4B85
:101500001A600A4B9847EEE7054B9847FEE700BF85
:101510008CE5400091174000E11240004D1C400056
:101520009D084000A03A0120CC3A0120B9094000B2
:10153000024A136801331360704700BF503A01201C
:1015400010B5044B9847044B1C68044B9847204641
:1015500010BD00BFCD084000CC3A0120F508400086
:101560002DE9F0473A4B1B68002B63D1394B1A68C1
:1015700001321A601E6896B9374B1B681B6813B19D
:10158000364B9847FEE7344A1168354B18681060AF
:101590001960344A136801331360334B9847334B57
:1015A0001B689E420CD20024314B1B68DB6A03EBA4
:1015B0008303304A52F82330022B28BF01243EE037
:1015C0000024DFF89490DFF8C0802B4F1BE04FF031
:1015D000FF32264B1A60E7E7244A1360E4E7E86A23
:1015E0003B68984288BF386000EB80005146214B31
:1015F00003EB8000214B98471D4B1B68EA6ADB6AAE
:101600009A4228BF0124D9F800301B68002BDED095
:10161000D9F80030DB68DD686B689E42DCD305F1E9
:10162000040A5046C047AB6A002BD8D005F1180019
:10163000C047D4E7124A1368013313600024114BEA
:101640001B68002B0CBF20460120BDE8F08700BFBF
:10165000503A0120CC3A0120DC3901209D0840009D
:10166000E0390120883A01205D1240009C000020F2
:10167000D8390120E43901205C3A01209D0740005F
:101680004C3A0120D03A0120E90740002DE9F84307
:10169000304B1B6813B9304B9847FEE72F4B9847E8
:1016A0002C4B1A68013A1A601B68002B4DD12C4B49
:1016B0001B682BB12B4F2C4E2C4DDFF8D09020E027
:1016C00000242B4B98472046BDE8F883FB68DC6874
:1016D00004F11800B04704F104084046B047E06A3E
:1016E0002B68984288BF286000EB8000414609EBD8
:1016F0008000204B9847204B1B68E26ADB6A9A42C5
:101700000CD23B68002BE1D11C4B1B68ABB11B4BCF
:101710001B6893B11A4E1B4D184C08E00122194B5F
:101720001A60EEE72368013B236023682BB1B047C2
:101730000028F7D001232B60F4E7124B1B68012B24
:1017400005D1114B98470124BBE70024B9E70024D9
:10175000B7E700BF503A01209D084000CD08400087
:10176000483A01208C3A0120E90740005C3A012008
:10177000F50840009D074000D83901204C3A01206F
:1017800061154000D03A012085084000E43901206D
:1017900080B5164DDFF87880154E24E0154B1B6898
:1017A000012B1ED82B68002BF8D0C0473468B847EF
:1017B000002CF7D0104B9847F368DC68201D0F4BC6
:1017C00098470F4A1368013B13602B68013B2B605D
:1017D0000C4B9847206BDFF83C90C8472046C84721
:1017E000E0E7094B9847094FDCE700BF583A012072
:1017F000B83A0120E4390120CD084000E907400053
:10180000483A0120F5084000850840008D16400048
:10181000311540009D0B4000224B1B68FBB910B5F1
:101820000022214B1A60214B1B6803EB8303204AE3
:1018300052F82330BBB91D4B1B686BB11B4A1C49C6
:101840001368013B1360136803EB830351F82330E3
:101850004BB91368002BF3D1164B9847FEE70122D2
:10186000114B1A607047114B1B68114A9900C81838
:1018700002EB800044686468446019440246083200
:10188000944209D003EB8303094A02EB83035B68AC
:10189000DA68094B1A6010BD6068054A02EB8102E4
:1018A0005060EFE7503A0120D03A01205C3A012025
:1018B000E43901209D084000D839012038B590B1A5
:1018C0000C460D4D296818310C4B98472868043098
:1018D0000B4B9847B4F1FF3F08D00A4B18682044DF
:1018E000094B984738BD094B9847FEE729680431F2
:1018F0000748084B984738BDD8390120B507400044
:10190000E9074000CC3A0120891240009D084000C0
:10191000A43A01209D07400038B578B10D46094C26
:1019200021681831084B984720680430074B9847C6
:10193000074B18682844074B984738BD064B984713
:10194000FEE700BFD83901209D074000E9074000AD
:10195000CC3A0120891240009D08400038B5C36888
:10196000DC68002C25D004F118052846154B984753
:10197000154B1B6803BB251D2846124B9847E06A90
:10198000124B1B68984284BF104B186000EB80001C
:1019900029460F4B03EB80000E4B98470E4B1B68FC
:1019A000E26ADB6A9A4283BF01200C4B1860002078
:1019B00038BD0B4B9847FEE729460A48054B984728
:1019C000ECE700BFE9074000503A01205C3A0120F3
:1019D000E43901209D074000D8390120D03A012088
:1019E0009D0840008C3A012008B530B1044A1268C5
:1019F0000260044A1268426008BD034B9847FEE744
:101A0000883A0120CC3A01209D08400038B5D8B171
:101A10000D460446D9B1154B9847154B1A682B68EB
:101A2000B3F1FF3F1ED0134909682068884202D0F5
:101A300061688A4218D26168501A83420AD8012428
:101A40000D4B9847204638BD0C4B9847FEE70B4B93
:101A50009847FEE79B1A0B442B602046084B98479B
:101A60000024EDE70024EBE70124E9E7CD0840007E
:101A7000CC3A0120883A0120F50840009D0840003A
:101A8000E91940000122014B1A607047D03A012049
:101A9000014B1868704700BFD8390120054B1B68FF
:101AA00033B1054B1B68002B0CBF02200020704790
:101AB00001207047A03A0120503A0120002834D07C
:101AC00038B50546C26A19490968C96A8A4214D2FA
:101AD0008169002905DB15490968C96AC1F1050159
:101AE000816102EB8202124901EB82026969914233
:101AF00004D00E4A1268D26AEA6238BD2C1D204614
:101B00000C4B9847094B1B68D86AE8620A4B1B6864
:101B1000984284BF084B186000EB80002146044BBC
:101B200003EB8000054B984738BD7047D83901203A
:101B3000E4390120E90740005C3A01209D0740009C
:101B400000B338B50446C16A026C914219D0051D34
:101B500028460D4B9847206CE062A369002BA4BF78
:101B6000C0F10503A361094B1B68984284BF074B72
:101B7000186000EB80002946054B03EB8000054B05
:101B8000984738BD704700BFE90740005C3A012024
:101B9000E43901209D07400008B541600061914291
:101BA0000CD8D21A83699A4201D3012008BD011DC5
:101BB000094B1868094B9847002008BD9A4201D28A
:101BC000994206D2011D064B1868044B9847002025
:101BD00008BD012008BD00BFD83A0120B50740006C
:101BE000D43A012070B50F4B98470F4B1B6813B1C7
:101BF0000E4B984770BD0E4D28460E4EB0470E4C0A
:101C00002046B0470D4B1D600D4B1C6000220C217F
:101C100002200C4B9847044B18600028E8D10A4B6F
:101C20009847FEE7CD084000083B0120F50840003A
:101C3000DC3A012081074000F03A0120D43A01202B
:101C4000D83A0120FD0D40009D08400010B584B039
:101C50000B4B98470B4B1B6873B100230393029304
:101C60000193022200924FF4827207490748084C00
:101C7000A04708B104B010BD064B9847FEE700BF6F
:101C8000E51B4000083B012094E540009D1D4000FD
:101C9000E11240009D08400030B585B0104C256829
:101CA000DDB11C4601910292039005290EDC0D4B1B
:101CB000984702284FF000030CBF089A1A4601A962
:101CC00007480068084CA04705B030BD00232246F5
:101CD00001A92846054CA047F6E70020F4E700BF1D
:101CE000083B01209D1A40004D0E4000BD0F4000F2
:101CF0002DE9F04782B08046204B98470746204B9D
:101D00001B68984213D30023C8F800301C4B1F6097
:101D1000384602B0BDE8F087002100910B465246DC
:101D20002046184CA04720B9174B9847FEE7174D9F
:101D3000174E2B681A68C2B1DB68D3F800A0DC68C4
:101D400004F104094846B047636A20469847E369AE
:101D5000012BEED1A36953449A45DDD2636024611F
:101D6000494628680B4B9847E3E70B4A1068074938
:101D7000086013600123C8F80030C7E74115400030
:101D8000043B0120991C40009D084000D43A0120EA
:101D9000E9074000B5074000D83A0120F0B587B008
:101DA000574F584B1B681A68002A00F09E80DB686A
:101DB0001D68554B984703A8544B98470446039B0E
:101DC000002B60D1A84237D2291B514B1868514BC8
:101DD0009847514B9847002852D04D4D4F4C002307
:101DE0001A4603A92868A0470028DAD0039B002BD5
:101DF000F5DB059E73690BB1301DB84702A8434B54
:101E00009847039B092BEAD801A252F823F000BFA0
:101E10008D1E40008D1E40008D1E4000DF1D4000C5
:101E2000C91E4000E31E40008D1E40008D1E400074
:101E3000DF1D4000C91E4000374B9847314B1B68DF
:101E4000DB68DE68301DB847F369012B03D0736A85
:101E500030469847C1E7B1692B46224629443046AF
:101E60002F4CA0470128F2D1002100910B462A46B1
:101E700030462C4CA0470028E9D12B4B9847FEE771
:101E80002A4B9847A9E7244B9847A6E70499B469D9
:101E90000B46024621443046214CA04701289DD1E3
:101EA000736A30469847F369012B97D1B2690021D4
:101EB00000910B460498024430461A4CA047002873
:101EC0008CD1194B9847FEE70499B16131B10346B3
:101ED000024601443046124CA0477FE7124B984718
:101EE000FEE73046124B984778E7074B984703A820
:101EF000064B98470446039B002BC4D1002563E79B
:101F0000E9074000D43A012031154000F11C40009F
:101F1000083B01200D1240008D164000911040003A
:101F2000991B4000991C40009D0840008508400016
:101F30009D0B400010B500231A4619460248006860
:101F4000024CA04710BD00BF4C2202204D0E4000A5
:101F500070B582B005460B200F4B98470F4C70238D
:101F60004FF080424FF0205120460D4EB047009573
:101F700070234FF080420B2120460A4DA8470022D3
:101F80000B212046084B98474FF080412046074BD5
:101F9000984702B070BD00BF994A4000000E0E4045
:101FA000A9024000B903400051044000570340001B
:101FB00010B50446084B4FF000521A61C3F8A02038
:101FC0001A630648064B984714B9064B984710BD4C
:101FD000054B984710BD00BF000E0E40351F400056
:101FE000511F4000ED3E4000513E400010B500231F
:101FF0004FF0FF32194612480068124CA047124BAE
:102000001C7821461148124B9847313C082C12D8B5
:10201000DFE804F0051108110B1111110E000D4B32
:10202000984710BD0C4B984710BD0C4B984710BDFE
:102030000B4B984710BD0B48054B984710BD00BF90
:1020400040A20120911040004CA201209CE54000DC
:102050002D7D4000D9684000F530400091344000AB
:102060000D4E4000E4E5400010B500231A46194625
:1020700006480068064CA04730B1064B187818286F
:1020800014BF0020012010BD002010BD40A201207F
:10209000911040004CA2012010B430B103460B480F
:1020A00004780B4830F81400188029B1094B1878CF
:1020B000094B33F810300B802AB1084B1978084BC4
:1020C00033F8113013805DF8044B70470C3B01204E
:1020D000BC000020103B0120A00000200E3B01208E
:1020E00018010020F8B504460D46012819D030B17A
:1020F00002281BD0032914BF0327022703E000296D
:1021000014BF0527042706200A4EB047394614207D
:10211000094B98470020B047084B1C70084B1D70B6
:10212000F8BD002914BF07270627ECE7CF1E18BF0C
:102130000127E8E7713D40008D3C40000C3B012049
:10214000103B012038B504460720054DA84721461D
:102150001420044B98470020A847034B1C7038BD3F
:10216000713D40008D3C40000E3B012070B582B0B7
:10217000054602AC002304F8013D21460320064E2B
:10218000B047288021460720B047688021460F20AD
:10219000B047A88002B070BDAD3C4000F0B583B040
:1021A000054602AE002306F8013D0424054F3146E2
:1021B0002046B84725F8020B0134E4B2072CF6D1CB
:1021C00003B0F0BDAD3C4000F0B583B0054602AEB3
:1021D000002306F8013D0824054F3146E0B2B84718
:1021E00025F8020B01340B2CF7D103B0F0BD00BF72
:1021F000AD3C400010B582B0044602A9002301F8AE
:10220000013D0B20054B984780B220804AF65523AC
:10221000984214BF0020012002B010BDAD3C400028
:102220002DE9F04182B004460F46154698460898BD
:1022300000238DF8073008B10F4B984714B12046A2
:102240000E4B984755B100240D4E0DF10701E0B239
:10225000B04725F8020B0134032CF6D1B8F1000F7A
:1022600002D04046074B984717B13846064B98476F
:1022700002B0BDE8F08100BFF52140009D21400083
:10228000AD3C40006D214000C921400010B560B157
:1022900003461048007818800F4C04EB8004246833
:1022A0005C600E4C54F82000986059B10C4B1B78C0
:1022B0000B800C4800EB8300006848600A4850F827
:1022C00023308B6022B1002201210848084B984737
:1022D00010BD00BF0F3B0120C0E64000D4E6400027
:1022E0000D3B012024E640003CE640009CE6400017
:1022F000714F40002DE9F04383B005460E46174666
:1023000001EB410402EB440400238DF807302B4B12
:10231000984758B92A4B33F814905DB1012D47D036
:102320004FF47C652A464FF00C0808E00020254B4E
:102330009847EFE74FF47C552A464FF00E080124EA
:1023400042FA04F313F0010F16D10134102CF7D127
:102350001D481E4B98471E4B186842685368013B46
:102360005360002B20DB4268136801331360194867
:10237000164B9847102401E0102CE9D00DF107010D
:102380004046154B984720EA050189B209FA04F442
:10239000254029434046114B9847114B1E70114B65
:1023A0001F7003B0BDE8F08341680F4B9847DEE72C
:1023B0003F254FF00C080024E0E700BF813D4000BE
:1023C00054E64000713D4000F4E54000F17D4000DE
:1023D0007803002008E64000AD3C40008D3C400002
:1023E0000F3B01200D3B0120017E400007EE900ACB
:1023F00089B10D4B1A780D4B03EB820393ED007AF4
:10240000F8EEE77A67EE877A9FED097A67EE877ACA
:1024100017EE900A7047074B1A78074B03EB8203BD
:1024200093ED007AECE700BF103B0120C4000020D0
:10243000000000380C3B0120AC00002007EE100A21
:1024400079B10C4B1A780C4B03EB8203D3ED007A75
:1024500067EE877A9FED097A67EE877A17EE900A22
:102460007047074B1A78074B03EB8203D3ED007AD2
:10247000EEE700BF103B0120C40000200000003840
:102480000C3B0120AC000020094B1A78094B03EBF0
:10249000820307EE900AF8EEE77A93ED007A67EE92
:1024A000877A9FED057A67EE877A17EE900A704774
:1024B0000E3B0120D800002000000038084B1A789D
:1024C000084B03EB8203D3ED007A07EE100A67EEA8
:1024D000277A9FED057A67EE877A17EE900A7047A4
:1024E0000E3B0120D80000200000003807EE900AC3
:1024F000F8EEE76AF3EE047A86EEA77AF3EE097A4D
:1025000077EE277A17EE900A704700002DE9F04722
:102510002DED048B8A4691461D46DDF830800D9FD7
:102520000E9E19461F4CA04708EE100A2946504639
:10253000A04709EE100A29464846A04708EE900A2F
:10254000B8F1000F05D018EE100A174B9847C8F8DD
:10255000000027B119EE100A134B9847386026B1D6
:1025600018EE900A104B9847306028EE088A29EE42
:10257000099A38EE098A68EEA88A38EE288AF1EEC0
:10258000C88AB5EE408AF1EE10FA05D418EE900A2A
:10259000BDEC048BBDE8F08718EE100A034B98479A
:1025A000F4E700BFED234000C52F40008D6B4000D5
:1025B0002DE9F04182B0074616461D4600238DF8EE
:1025C000073000293BD088460DF107011B20204B26
:1025D000984704461F201F4B984704F01F0343FAF7
:1025E00000F088F800003FB14FF47060194B984735
:1025F00004F4706404413C7066B10DF107011C20C5
:10260000134B984704461F20124B984704F01F04B1
:102610000441347085B10DF107011D200C4CA04719
:1026200006460DF107011E20A04700B20A4B1B68A9
:10263000184040EA0640286002B0BDE8F08100285A
:10264000DAD00DF107011B20014B98470446CAE779
:10265000AD3C4000DD2F4000A8EC400030B583B019
:102660000120074DA8470DF107011C20054B984795
:1026700084B20020A84724F0E70003B030BD00BFBB
:10268000713D4000AD3C4000F8B506460F460B4D8D
:102690002C6801460A4820440A4B984730460A4BAA
:1026A00098472044286047B1054B084A19181488F8
:1026B00092781C528A7002302860F8BD143B0120C9
:1026C000183B012021804000C181400054F64000A9
:1026D00070B586B00E4602460D4901A80D4B9847CD
:1026E0000D4D2C6801A90D4820440D4B984701A8B9
:1026F0000C4B98472044286046B1084B0A4A1918E9
:10270000148892781C528A700230286006B070BD1E
:102710004CE74000D57F4000143B0120183B0120CE
:1027200021804000C181400054F6400008B50449B2
:102730000448054B98470022044B1A6008BD00BFAF
:10274000183B012054E740002D7D4000143B012040
:102750002DE9F84F0F46934600EA01084FF0FF3588
:102760000F240126DFF834A0DFF8349003E0013CA9
:10277000B4F1FF3F0FD006FA04F31F42F7D0013542
:1027800018EA030FF3D000215046C84731465BF8E2
:102790002500C847EBE7A8B2BDE8F88F88E74000FE
:1027A00089264000F0B583B000238DF80730B0F5DE
:1027B000E05F5ED0B0F5604F42D0B0F5407F6FD0A3
:1027C0000DF107011020424DA847424E32464FF40A
:1027D000EE5180B2404CA04707460DF10701112091
:1027E000A84706EB870247F21E0180B2A0470DF111
:1027F00007011220A847394E324643F2030180B246
:10280000A04707460DF107011320A84706EB8702F2
:10281000072180B2A0470DF107011420A8473246D6
:1028200043F6FF7180B2A04707460DF1070115205E
:10283000A84706EB870243F23E0180B2A04716E0AC
:102840000DF107011020224EB047224D2A464FF4C9
:10285000EE5180B2204CA04707460DF10701112030
:10286000B04705EB870247F21E0180B2A04703B0D4
:10287000F0BD0DF107011220154EB047174D2A4645
:1028800043F2030180B2144CA04707460DF1070143
:102890001320B04705EB8702072180B2A047E6E787
:1028A0000DF1070114200A4EB0470C4D2A4643F69D
:1028B000FF7180B2084CA04707460DF107011520B3
:1028C000B04705EB870243F23E0180B2A047CEE756
:1028D000AD3C400054010020512740003801002049
:1028E00038B5044610F0080F00D150B904F4604028
:1028F000084DA84704F4E050A84704F44070A847E6
:1029000038BD00210448054B984701212046044B5F
:102910009847EBE7A527400058E74000892640008C
:10292000D126400008B5054B98470022044B1A6099
:10293000044B9847044B984708BD00BF5D264000F4
:10294000143B0120E12840002D274000F8B5214B21
:10295000187001281ED0204E204D64223146284692
:102960001F4FB8476422314628461E4CA0476422B8
:1029700031462846A0471C4E1C4D6422314628464D
:10298000B847642231462846A0476422314628468B
:10299000A047F8BD164E114D642231462846104F0F
:1029A000B8476422314628460E4CA047642231467F
:1029B0002846A0470F4E0D4D642231462846B847A1
:1029C000642231462846A047642231462846A04763
:1029D000F8BD00BFF83F012048EA4000003F012059
:1029E0004D814000DD80400058EA40008C3F0120CE
:1029F00050EA400060EA40000022014B1A60704734
:102A0000F43F01202B4A82FB0032C317C3EB621351
:102A1000642202FB130000284AD130B587B0264B50
:102A20001B78002B23D1254D254B0593254B049373
:102A3000254B0393254B0293254B0193254B009384
:102A4000254B264A26492846264CA047264A274B8E
:102A50000593049303920292019200921346244933
:102A60002846A0472348244B984707B030BD134D54
:102A7000224B0593224B0493224B0393224B029348
:102A8000224B0193224B0093224B234A2349284691
:102A9000144CA047224B234A0592234A04920393E5
:102AA000029301930093214A0D492846A047D9E794
:102AB000704700BF1F85EB51F83F012034EB400009
:102AC0004CEB400054EB40005CEB400068EB4000F6
:102AD00074EB400080EB40001CEB400028EB400012
:102AE00058F540002D7D40008CEB400098EB4000F5
:102AF000C0EB400040EC4000F17D4000B8EB4000EE
:102B0000BCEB4000C4EB4000CCEB4000D8EB4000F5
:102B1000E4EB4000A0EB4000ACEB400014EC4000C4
:102B2000F0EB400008EC400010EC4000FCEB4000F3
:102B3000304B1A68304981FB0231D317C3EB611364
:102B4000642101FB1323002B52D110B584B004285B
:102B500048D8DFE800F003113A1F2D00274B0393FC
:102B6000274A02920193274A0092274A2749284878
:102B7000284CA04704B010BD274B284A0392284A8E
:102B800002920193274A0092274A28492048214C63
:102B9000A047EFE7194B204A0392254A029201937E
:102BA000244A0092244A194919481A4CA047E1E7DF
:102BB000194B0393214A02920193214A0092214A20
:102BC0001A491348134CA047D4E7144B17490391F3
:102BD0001D4A029201931D4A00921D4A0C480D4C59
:102BE000A047C7E71B4A0C491B480A4B9847C1E757
:102BF000704700BFF43F01201F85EB519401002076
:102C0000BCEA4000C0EA4000A0EA40008801002081
:102C1000A4EA40002D7D4000900100208C0100209E
:102C2000CCEA4000D4EA4000C4EA4000F03F012072
:102C3000E0EA4000E4EA4000DCEA4000ECEA400060
:102C4000F0EA4000E8EA4000FCEA400004EB400003
:102C5000F4EA40000CEB400014EB40002DE9F04F8B
:102C60002DED028B87B004460F4615461E46DDF853
:102C70004880354B1A68354981FB0231D317C3EBC5
:102C80006113642101FB1323E3B9002854D0002011
:102C90002F4B98472FB101202D4B984702202C4BEA
:102CA000984715B103202A4B984716B10420284BAA
:102CB0009847B8F1000F02D00520254B98472548CA
:102CC000254B9847204A136801331360234B1B7828
:102CD000002B4BD144B1B4F90030B4F90220B4F95F
:102CE00004101F481F4CA04747B1B7F90030B7F98F
:102CF0000220B7F904101A481A4CA04745B1B5F99B
:102D00000030B5F90220B5F904101548154CA0475C
:102D100046B1B6F90430B6F90220B6F900101048F1
:102D2000104CA047B8F1000F00F01981B8F800105E
:102D30000D480C4B984712E1002FB2D00120044BF4
:102D40009847002CAAD1ACE7F43F01201F85EB5136
:102D5000312B400040EC4000F17D4000F83F012065
:102D600068EA40002D7D400078EA4000002C2FD01A
:102D70000021B4F90400DFF84092C847DFF804B23C
:102D8000CBF800000021B4F90200C847DFF8F8A131
:102D9000CAF800000021B4F90000C84708EE100A84
:102DA000734B1860DFF8D891DBF80000C847CDE915
:102DB000040118EE100AC847CDE90201DAF8000054
:102DC000C847CDE90001DDE904236A486A4988471C
:102DD000002F6FD00121B7F90400DFF8DCB1D8472C
:102DE000DFF8D8A1CAF800000121B7F90200D847DE
:102DF000DFF89891C9F800000121B7F90000D84721
:102E000083465E4B18605E4FDAF80000B847CDE9A4
:102E100004015846B847CDE90201D9F80000B84787
:102E2000CDE90001DDE90423524853498847002CCD
:102E300040D0544BD3ED007A9AED007A77EEC77A02
:102E4000F5EEC07AF1EE10FA48BFF1EE677A4E4B1C
:102E500093ED008A4D4B93ED007A38EE478AB5EE3C
:102E6000C08AF1EE10FA48BFB1EE488A404BD3ED6C
:102E7000008A424B93ED007A78EEC78AF5EEC08A5D
:102E8000F1EE10FA48BFF1EE688A3D4C17EE900A59
:102E9000A04782468B4618EE900AA047CDE9020172
:102EA00018EE100AA047CDE9000152465B463148B2
:102EB000314988471DB3B5F90400354CA047DFF808
:102EC0000091C9F80000B5F90400A047314F3860FF
:102ED000B5F90400A0470546294CD9F80000A047E1
:102EE00082468B462846A047CDE902013868A047B4
:102EF000CDE9000152465B4627481F49884736B353
:102F0000B6F90000254CA047254F3860B6F90200FD
:102F1000A047244D2860B6F90400A04708EE100A27
:102F2000174C3868A04706460F46F3EE097A78EE4C
:102F3000677A17EE900AA047CDE902012868A047FA
:102F4000CDE9000132463B4617480B498847B8F1A6
:102F5000000F04D0B8F800101448074B98471448E5
:102F6000144B984707B0BDEC028BBDE8F08F00BF53
:102F7000643F0120003F01202D7D4000803F012063
:102F8000A16F40006C3F0120683F0120843F012079
:102F900089244000703F01208C3F0120ED24400037
:102FA000783F01207C3F012080EA400094EA400005
:102FB00040EC4000F17D4000ED234000883F0120BF
:102FC000743F012007EE900AF5EEC07AF1EE10FA98
:102FD00048BFF1EE677A17EE900A704710F0010FC4
:102FE00026D1012340FA03F212F0010F17D1013369
:102FF000102BF7D110B50F480F4CA0470F48A04732
:103000000F4B186842685368013B5360002B0ADB82
:103010004268136801331360102398B210BD102B5F
:10302000E8D098B270474168064B98471023F4E700
:103030000023F6E7F4E54000F17D400008E640009B
:1030400078030020017E400038B511490020114C62
:10305000A04711490020A047104D29460020A04755
:103060000F490020A04743F24D310320A0470D49EE
:103070000120A0470C490220A0470C490020A0478E
:1030800029460020A0478120094B984738BD00BF42
:1030900047321900E53740004C3302004F3301003E
:1030A0004A330400473380004433800044329200A6
:1030B0000100002010B5022119200C4CA04701216D
:1030C0001920A04704211920A0474FF4407119206E
:1030D000A0474FF4C0711920A0474FF42071192068
:1030E000A0478120024B984710BD00BF093D40001A
:1030F000010000202DE9F04F91B0204B4FF000521D
:103100001A61C3F8A0201A631D481E4B98471E4B36
:1031100098471E4B984700238DF82C308DF82D30A2
:10312000F3238DF82E300BAA03212C20184B98473F
:103130005620184CA0470BAA02212C20164B98476A
:103140005620A0479DF82C301B029DF82D1043EA15
:10315000010212B2114882422BD019431048114B80
:103160009847114B186842685368013B5360002B25
:103170001CDB42681368013313601AE0000E0E4036
:10318000351F4000511F4000513E40004930400073
:10319000893F400001000020B540400055AAFFFFD4
:1031A0006CEC40002D7D4000780300204168B14B5D
:1031B0009847B14B98470BAA0021B020AF4FB847B2
:1031C00041238DF82C30A1238DF82D300BAA02213C
:1031D0003720AB4EB0475620AA4DA8470BAA002176
:1031E000B820B84700248DF82C400F238DF82D30DF
:1031F0000BAA02217920B0475620A8470BAA2146E6
:10320000FC20B84706238DF82C304FF062088DF86B
:103210002D800BAA02212046B0475620A8470BAAB2
:103220002146D020B84704238DF82C308DF82D800E
:103230000BAA02212046B0475620A8470BAA2146D8
:10324000FC20B84707238DF82C3063238DF82D30F0
:103250000BAA02212046B0475620A8470BAA2146B8
:10326000D020B8474FF002088DF82C804FF0640949
:103270008DF82D900BAA41462046B0475620A8470E
:103280000BAA2146FC20B8478DF82C408DF82D90D4
:103290000BAA41462046B0475620A847A8465620CC
:1032A000C04700248DF82C408DF82D40F1238DF877
:1032B0002E300BAA03212046714EB0472B20C04769
:1032C0000BAA032120466D4DA8479DF82C209DF8A0
:1032D0002D3043EA02231BB207932B20C0478DF801
:1032E0002C408DF82D40DC238DF82E300BAA0321C5
:1032F0000420B0472B20C0470BAA03210420A84775
:103300009DF82C309DF82DA04AEA032A0FFA8AFA7C
:103310002B20C0478DF82C408DF82D40AB238DF825
:103320002E300BAA03210820B0472B20C0470BAA40
:1033300003210820A8479DF82C309DF82DB04BEABA
:10334000032B0FFA8BFB2B20C0478DF82C408DF8F8
:103350002D4086238DF82E300BAA03210C20B04778
:103360002B20C0470BAA03210C20A8479DF82C2036
:103370009DF82D3043EA022319B208912B20C04753
:103380008DF82C408DF82D4045238DF82E300BAA5A
:1033900003211020B0472B20C0470BAA0321102087
:1033A000A8479DF82C209DF82D3043EA022318B23F
:1033B00009902B20C0478DF82C408DF82D406823B4
:1033C0008DF82E300BAA03211420B0472B20C047C4
:1033D0000BAA03211420A8479DF82C309DF82D70CE
:1033E00047EA03273FB22B20C0478DF82C408DF8C9
:1033F0002D401F238DF82E300BAA03211820B04733
:103400002B20C0470BAA03211820A8479DF82C3079
:103410009DF82D9049EA03290FFA89F92B20C0471E
:103420008DF82C408DF82D4032238DF82E300BAACC
:1034300003211C20B0472B20C0470BAA03211C20CE
:10344000A8479DF82C309DF82D4044EA032424B26F
:103450002B20C047CDF810B0CDF80CA0079A0292EF
:10346000CDF804900097099B224608990648074C1E
:10347000A04714E7017E4000B5304000B540400051
:10348000893F40000100002088EC40002D7D400075
:103490002DE9F04F97B07048DFF8FC81C0476F4BC3
:1034A0004FF000521A61C3F8A0201A636C486D4BAC
:1034B00098476D4B98476D4B98474FF000098DF832
:1034C00044908DF84590F3238DF8463011AA0321DE
:1034D0002C20674DA8475620664CA04711AA022110
:1034E0002C20654EB0475620A0479DF844109DF80B
:1034F000453043EA01216148614FB8476148B84708
:10350000614B984711AA4946B020B0478DF84490C6
:10351000F9238DF8453011AA02214846A8475620C4
:10352000A04711AA4946B820B0478DF84490A3237C
:103530008DF8453011AA02214846A8475620A047D9
:1035400011AA4946FC20B04706238DF84430622773
:103550008DF8457011AA02214846A8475620A04779
:1035600011AA4946D020B04704238DF844308DF885
:10357000457011AA02214846A8475620A04711AA23
:103580004946FC20B04707238DF8443063238DF86B
:10359000453011AA02214846A8475620A04711AA43
:1035A0004946D020B04702278DF844704FF0640A96
:1035B0008DF845A011AA39464846A8475620A0478D
:1035C00011AA4946FC20B0478DF844908DF845A0DB
:1035D00011AA39464846A8475620A0472B48C0475D
:1035E000DFF8B8A0DFF8B8B0294F1CE0BDF92430EF
:1035F000BDF92620BDF92810BDF942000590BDF99E
:103600002A000490BDF922000390BDF91C0002902D
:10361000BDF91E000190BDF9200000901D48184C16
:10362000A04709F10109D04798B94846D8470DF19C
:103630001A06002425464FF00B08E1B22846B84789
:1036400026F8020F41462846B8470134082CF4D129
:10365000CCE717B0BDE8F08F1CEC4000000E0E4028
:10366000351F4000511F4000513E4000493040008E
:10367000893F400001000020B54040006CEC400054
:103680002D7D400028EC4000B53040003CEC40006F
:10369000DD3C400044EC4000F17D400069204000EA
:1036A000052A400080F4440313F4000F1CBF80F48B
:1036B0004A0383F4004313F4800F18BF83F4E82314
:1036C00013F4001F18BF83F4683313F4801F18BF6E
:1036D00083F4E83313F4002F18BF83F4684313F422
:1036E000802F18BF83F4E84313F4003F18BF83F41E
:1036F000685313F4803F18BF83F4E85313F4004F6A
:1037000018BF83F4686313F4804F18BF83F4E86331
:1037100013F4005F18BF83F4687313F4805F18BF5D
:1037200083F4E87313F4006F18BF83F0E80313F415
:10373000806F18BF83F0740313F4007F18BF83F009
:103740003A0313F4807F18BF83F01D0383F0FF005A
:10375000C0B2704770B41721FF240E2600250CE07C
:10376000D24302F001023346634002EB430303F00D
:10377000FF040139B1F1FF3F09D020FA01F2D2B2C2
:1037800014F0800FECD102F001022B46ECE7E0438D
:10379000C0B270BC704736207047000010B582B0D0
:1037A0008C00890441F400000B4B984702AA02F8F0
:1037B000040D032104F0FC00084B98479DF80430E9
:1037C0009DF8054044EA032424B25620044B984750
:1037D000204602B010BD00BFA5364000B5404000F5
:1037E0000100002000B583B00B0C8DF804300B0AEB
:1037F0008DF805308DF8061001AA0321034B984778
:103800005620034B984703B05DF804FB893F400006
:103810000100002030B583B00D4602EA030040EA03
:103820008140C0F3160420460F4B984740EA04201D
:10383000030C8DF80430030A8DF80530C0B28DF802
:10384000060060B1A80001AA032100F0FC00074BAC
:1038500098475620064B9847002003B030BD0548D6
:10386000054B9847EEE700BF55374000893F4000C1
:1038700001000020F8EE4000F17D400010B541EA63
:1038800000442046024B984740EA042010BD00BF88
:10389000A536400010B40D4AD2F88030D2F88440EA
:1038A00042F8330002EBC30251600133102B08BF12
:1038B0000023064AC2F88030102C14BF01341024B3
:1038C000024BC3F884405DF8044B7047FC3F012075
:1038D0002DE9F84F05461E46C0F30164174612B1A4
:1038E000002C08BF0424002DB4BF4FF0570A4FF03E
:1038F000520AC5F384694FEA15283EB3002F2CD134
:1039000004EB84041E4921441E481F4CA047DFF8E5
:1039100088B05846A04751461C48A0475846A04783
:10392000DFF884A049465046A0475846A0471FFAF2
:1039300088F11748A0475846A047E9B25046A0472B
:103940005846A0478FB1B6B9BDE8F88F1148DFF8E7
:1039500038B0D8471048D847D0E729460F48DFF895
:1039600028B0D8470C48D847CAE729460B48A04793
:103970005846A047E7E70A480A4B9847E4E700BFE4
:10398000E802002054E740002D7D400020ED40007B
:103990004CE740000CED400014ED400018ED4000F5
:1039A00040EC4000F17D400024ED40002DE9F84F4F
:1039B000174CD4F884B059461648174B9847174807
:1039C000174B9847D4F88050BBF1000F1DD000244E
:1039D000DFF83C90A046012713E00F2509EBC50353
:1039E000D3F804A043463A46214659F835000D4E17
:1039F000B0473B46424621465046B0470134A345B6
:103A000003D0002DE9D0013DE8E7BDE8F88F00BF05
:103A1000FC3F01202CED40002D7D400044ED400096
:103A2000F17D4000D1384000014B1870704700BF55
:103A3000F93F012008B5054B1860054B1960054B8F
:103A40001B7803B908BD044B9847FBE79C01002095
:103A5000A0010020F93F012095384000F8B5214B26
:103A60001B68214A1268042829D8DFE800F0032BDC
:103A7000301A35001D4C1E4D04F1300726460FCE7E
:103A800028606960AA60EB6034461035BE42F5D10B
:103A900003CC28606960002202211548154B984725
:103AA000F8BD134D144C0FCC28606960AA60EB6020
:103AB00003CC286169612288A3782A83AB760F4BF7
:103AC0009847F8BD0E490A480E4CA047F7E70E4943
:103AD00007480C4CA047F2E70C490548094CA047A1
:103AE000EDE700BFA00100209C01002090ED400008
:103AF00078A10120714F4000C8ED4000AD39400071
:103B0000E4ED4000D57F400018EE40005CEE400040
:103B100070B582B004461D4B1E6800F04073B3F1CF
:103B2000007F28D0B3F1407F2DD04BB1000A184B55
:103B30009847E3B298420AD10025284602B070BDEA
:103B40000225200A124B9847E3B298420FD0114D3C
:103B50000190E3B20093234632460F4928460F4CAA
:103B6000A0470122114628460D4B984701252846BB
:103B70000C4B9847E1E7000A054B9847E3B298429F
:103B8000E5D10325F3E70425DBE700BF9C01002016
:103B9000A536400078A10120ACEC4000D57F400064
:103BA000714F40005D3A400043881B0403F47F03DB
:103BB0008288120292B21343028843EA0263807938
:103BC000184370472DE9F04383B000238DF8073088
:103BD000861E0D46871D0D4CDFF83490DFF83480CB
:103BE00000231A4636F8021F2046C847236913F0FF
:103BF000020FFBD00DF1070229462046C0470235CF
:103C0000BE42EDD103B0BDE8F08300BF00840040A8
:103C100017054000E7044000030E0B80C0F3074384
:103C20004B80C0F307238B80C0B2C8807047000070
:103C300070B584B016460E4B9847054602A90D4B49
:103C40009847694602A80C4B984768460B4B984723
:103C50000446014628460A4B98472046094B984798
:103C6000054634605620084B9847284604B070BD7E
:103C70007D384000193C4000C53B4000A93B400056
:103C8000353A4000113B40000100002000B583B0F0
:103C9000800060F07F0001AA00F0FC00024B984712
:103CA00003B05DF804FB00BF313C400070B582B04A
:103CB0000E46800000F07C0401AA00212046064D3B
:103CC000A84701AA00212046A84730700198C0F3F8
:103CD0000F2002B070BD00BF313C400070B582B013
:103CE0000D46002400944FF6FF7322462046044EF2
:103CF000B04729462046034B984702B070BD00BF2D
:103D0000153840009D37400030B583B0054689B274
:103D10006FEA41216FEA512141EA804420460F4B6E
:103D2000984740EA0424230C8DF80630230A8DF8C6
:103D300004308DF80540A80000F0FC00084B9847BF
:103D400001AA02219DF80600064B9847064B1C600D
:103D50005620064B9847002003B030BDA5364000E2
:103D600051404000893F400074A101200100002023
:103D700008B581B21F20014B984708BD8D3C40001B
:103D800000B583B00DF107011F20034B984780B2A7
:103D900003B05DF804FB00BFAD3C400008B500F087
:103DA0000101890010F0020F18BF41F00201182034
:103DB000014B984708BD00BF8D3C400008B5082165
:103DC0001820014B984708BD8D3C400030B583B0AA
:103DD000054602A9002301F8013D0E20154B984726
:103DE00084B221461448154B9847DDB144F4804114
:103DF0000E20134B98470DF107010E200D4B9847ED
:103E000081B210480D4B98470F4B186842685368B1
:103E1000013B5360002B09DB4268136801331360D8
:103E200003B030BD24F48044A1B2E1E74168074B00
:103E30009847F5E7AD3C4000A0EE40002D7D4000E6
:103E40008D3C4000CCEE400078030020017E400015
:103E500038B51D4C20461D4B9847022120461C4B6F
:103E6000984704F5806402232360802323604FF089
:103E700080732360636843F001036360636843F009
:103E80001003636000212046124B98470022114620
:103E90002046114B98470122002120460F4B98479E
:103EA0000022114620460E4B9847EF220021204663
:103EB0000C4B984710234022002120460A4DA8476A
:103EC0000123236038BD00BF008000407D454000D5
:103ED00009474000D10440004B05400069054000FF
:103EE000870540009B054000C305400038B51D4CC8
:103EF00020461D4B9847022120461C4B984704F54D
:103F0000806402232360802323604FF0807323604A
:103F1000636843F001036360636843F01003636008
:103F200001212046124B9847002201212046114BC7
:103F300098470122114620460F4B98470022012145
:103F400020460E4B9847EF22012120460C4B984704
:103F500010234022012120460A4DA8470123236057
:103F600038BD00BF008000407D454000094740004B
:103F7000D10440004B054000690540008705400022
:103F80009B054000C30540002DE9F04782B00F4675
:103F9000164600238DF80730ADF8043000F07F0A94
:103FA000224B1B7863BB00239DF807205146204815
:103FB000204CA0471E4A136913F0020FFBD00DF1ED
:103FC000070201A91A481C4B9847B7B135463E4431
:103FD000174CDFF86080184F00231A4615F8011BB4
:103FE0002046C047236913F0020FFBD00DF10702F2
:103FF00001A92046B847AE42EED102B0BDE8F08735
:1040000051460E480E4B98475FB1344606EB070900
:10401000DFF838800A4D14F8011B4046A8474C458C
:10402000F9D10848084B9847BDE700BF84400120FC
:104030000084004017054000E704400048EF4000BE
:104040002D7D400040EC4000F17D400058EF4000E5
:1040500010B582B000238DF80730ADF8043040F081
:1040600080040E4B1B789BB900239DF80720214646
:104070000B480C4CA0470A4A136913F0020FFBD0FF
:104080000DF1070201A90648074B984702B010BD81
:1040900021460648064B9847E6E700BF84400120CA
:1040A0000084004017054000E704400030EF400066
:1040B0002D7D40002DE9F0478CB005468846174617
:1040C00000218DF82F10ADF82C10262201A82E4BC0
:1040D00098473B78ADF8083045F080052B4B1B78AE
:1040E000002B38D100239DF82F2029462848294C41
:1040F000A047274A136913F0020FFBD00DF12F02DE
:104100000BA92348244B9847B8F1000F20D00DF19C
:1041100002067D1E08F1FF3847441D4CDFF87490FD
:10412000DFF8748000239DF82F2036F8021F204608
:10413000C847236913F0020FFBD00DF12F020BA922
:104140002046C047BDF82C3005F8013FBD42E9D1FB
:104150000CB0BDE8F087424629461048104B9847FE
:10416000B8F1000F0BD03C4607EB080ADFF83C9093
:104170000B4E14F8011B4846B0475445F9D1094885
:10418000094B9847AEE700BF917C40008440012076
:104190000084004017054000E704400004EF4000A1
:1041A0002D7D400040EC4000F17D400020EF4000BC
:1041B000F0B583B004460E4600230193344B984279
:1041C00016D0344B98421DD0334B984224D0334BF9
:1041D0009C422BD0324B9C4232D0324B9C4239D045
:1041E000314B9C4240D0314B9C4247D003B0F0BD94
:1041F0001F462F4D01A93846A8470028FAD1019B38
:104200003370E4E71F462A4D01A93846A847002825
:10421000FAD1019B3370DDE71F46254D01A93846D1
:10422000A8470028FAD1019B3370D6E71F46204DDE
:1042300001A93846A8470028FAD1019B3370CFE77F
:104240001F461B4D01A93846A8470028FAD1019BFB
:104250003370C8E71D46164C01A92846A047002820
:10426000FAD1019B3370C1E71D46114C01A92846C4
:10427000A0470028FAD1019B3370B7E71D460C4CCC
:1042800001A92846A0470028FAD1019B3370ADE769
:1042900000C2004000020240004202400082014091
:1042A00000C201400082004000020440004203407E
:1042B000E106400070B50C46304B984216D0304BAA
:1042C00098421CD02F4B984222D02F4B984228D096
:1042D0002E4B98422ED02E4B984234D02D4B9842E4
:1042E0003AD02D4B984240D0002070BD1E462B4D39
:1042F00021463046A8470028FAD1012070BD1E464D
:10430000264D21463046A8470028FAD1012070BD2D
:104310001E46224D21463046A8470028FAD10120EA
:1043200070BD1E461D4D21463046A8470028FAD1D3
:10433000012070BD1E46194D21463046A847002871
:10434000FAD1012070BD1E46144D21463046A847C3
:104350000028FAD1012070BD1E46104D214630467E
:10436000A8470028FAD1012070BD1E460B4D2146FA
:104370003046A8470028FAD1012070BD00C2004095
:1043800000020240004202400082014000C201409F
:10439000008200400002044000420340CD0640007D
:1043A0002DE9F04F87B00820304B98474FF4612B30
:1043B000CDF800B04FF0C00ACDF804A04FF4006370
:1043C00002930025039504952948DFF8D880C0475B
:1043D00001212748DFF8D090C847264A6946264879
:1043E000264CA0472448264EB0472348254FB847BF
:1043F000254B214A1A60254A254B1A60254A264B2F
:104400001A60CDF800B0CDF804A04FF40063029319
:10441000039504951648C04701211548C847154A19
:1044200069461548A0471448B0471348B847DFF815
:104430007C90D9F8003029469868DFF87480C0472E
:10444000D9F8003029465868C0470B48B8470A4891
:10445000B04701210848114B9847114B83F8085386
:104460004FF480721A6007B0BDE8F08F994A40009F
:1044700000C000400000270700C200406506400061
:10448000B9064000BF064000E0A10120B54240004F
:10449000DCA10120B14140006CA10120C506400013
:1044A00000E100E07D45400009474000780300201E
:1044B000357E4000F0B583B01548164B9847074647
:1044C00010F0010F04D117F0100F18D103B0F0BD98
:1044D00002AC002344F8043D0D4E0F4D21463046FA
:1044E000A8470028FAD19DF804200C4B1A7000232D
:1044F0001A4619460A4800680A4CA047E3E7002319
:104500001A46194608480068064CA047DEE700BF77
:1045100000C20040C9064000E10640004CA2012054
:1045200040A201204D0E400044A201200138022883
:1045300015D82DE9F0410E4614469AB10D46DFF824
:1045400038800C4FD8F8000015F8011B3B689847DD
:1045500000280ADBA81B013CF4D1BDE8F0814FF034
:10456000FF3070471046BDE8F0814FF0FF30BDE8E6
:10457000F08100BFDCA10120E0A10120544B1B7899
:10458000FF2B34D000B583B0EFF31083B3FA83F37D
:104590005B09019372B6BFF35F8F00224D4B1A7017
:1045A00001994B4A13780133137029B10122494B09
:1045B0001A70BFF35F8F62B6474A904218D0474ADD
:1045C000904223D0464A90422ED0464A904239D05B
:1045D000454A904244D0454A90424FD0444A904286
:1045E0005AD0444A904265D003B05DF804FBFEE720
:1045F0000720414B98470720404B98470021072050
:104600003F4B984707203F4B9847EDE716203A4B22
:1046100098470720394B984700210720384B984787
:104620000720384B9847DFE71520334B9847072082
:10463000324B984700210720314B98470720314BD8
:104640009847D1E714202C4B984707202B4B9847CD
:10465000002107202A4B984707202A4B9847C3E799
:104660001320254B98470620244B9847002106200D
:10467000234B98470620234B9847B5E70E201E4B47
:10468000984706201D4B9847002106201C4B984751
:1046900006201C4B9847A7E70920174B9847062090
:1046A000164B984700210620154B98470620154BBE
:1046B000984799E70820104B984706200F4B9847DA
:1046C000002106200E4B984706200E4B98478BE79B
:1046D00064A10120010300200040034000000440C9
:1046E0000080004000C001400080014000400240C6
:1046F0000000024000C00040994A40003D4B40008D
:10470000ED4A4000294B40000160704710B5A2B04F
:104710001848194B98470020184B9847184CA04749
:104720000028FCD0174B9847174A184B9A62184C30
:10473000A0470028FCD00020164B9847164B9847FE
:1047400016480D4B9847164B1A68164B1344164AD9
:10475000934201D922B010BD2023009302AB0F2257
:104760000E211248124CA047BDF848101148124BB8
:104770009847EFE7000E2707314D4000394A4000C7
:104780005D4A40007D4A4000013F4D0E00040E404E
:10479000894A4000D5494000494C400000002707A5
:1047A00004030020C0D3BDF980C3C901000A0E4034
:1047B0000D00002010140E40514B400038B54FF44E
:1047C0000044804B5C600B207F4DA8470C20A8471D
:1047D0007E4A4FF480601061C2F8A00010637C4BE9
:1047E00004215961C3F8A0105966C3F890105965A7
:1047F0005962C3F88010196F21F004011967596FCD
:1048000021F004015967022119631961C3F8A0104E
:104810004FF4005111631161C2F8A01014631461C8
:10482000C2F8A0404FF480541C66C3F890405C6509
:104830005C62C3F880401D6F25F480551D675D6F75
:1048400025F480555D675C601966C3F89010596562
:104850005962C3F880101C6F24F400541C675C6F0D
:1048600024F400545C6759604FF480411966C3F822
:10487000901059655962C3F880101C6F24F480446D
:104880001C675C6F24F480445C6759604FF40061DE
:104890001966C3F8901059655962C3F880101C6FEF
:1048A00024F400641C675C6F24F400645C67596046
:1048B00020211966C3F8901059655962C3F8801019
:1048C0001C6F0C431C675C6F24F020045C6759600C
:1048D0004FF480711166C2F8901051655162C2F8B0
:1048E0008010146F24F480741467546F24F480745F
:1048F000546751604FF400711166C2F89010516511
:104900005162C2F88010146F24F400741467546F5D
:1049100024F40074546751601966C3F89010596507
:104920005962C3F880101C6F24F400741C675C6F1C
:1049300024F400745C6759601866C3F890005865E9
:104940005862C3F88000196F21F480611967596FAC
:1049500021F480615967586001211166C2F89010F6
:1049600051655162C2F88010106F20F0010010678D
:10497000506F20F00100506751604FF000721A66CE
:10498000C3F890205A655A62C3F88020196F21F04D
:1049900000711967596F21F0007159675A604FF023
:1049A00080621A66C3F890205A655A62C3F8802064
:1049B000196F21F080611967596F21F08061596783
:1049C0005A6038BD50140E40994A400000100E4005
:1049D000000E0E40174A136B23F070031843106348
:1049E000936E13F0080F0AD14FF4006311498A6ED9
:1049F00012F0080F03D1013BF9D1012070470D4A95
:104A0000136B23F0030343F002031363936E13F05D
:104A1000080F0AD14FF4006306498A6E12F0080F9E
:104A200005D1013BF9D101207047002070470020DB
:104A3000704700BF00040E40012803D0054A064B12
:104A40001A607047044A936843F0254343F4801387
:104A50009360F3E7080000A510140E40054B5B6956
:104A600013F0800F1DBF044B986EC0F3C0100020E0
:104A7000704700BF10140E4000040E400022014B8E
:104A80009A62704700040E40024B986E00F00200DC
:104A9000704700BF00040E4032281ED81F280CD8D3
:104AA000114B9A6901238340934318D0012303FAE1
:104AB00000F00D4B18610020704720380A4BD3F8E6
:104AC00008210123834093430BD0012303FA00F014
:104AD000054BC3F8000100207047012070470020FB
:104AE00070470020704700BF00040E4041F00401F1
:104AF0000C4B00F1100243F822109A6E4FF48073B1
:104B000003FA00F0024209D14FF4006305498A6EAE
:104B1000024205D1013BFAD10120704700207047C5
:104B20000020704700040E404FF4807303FA00F039
:104B3000014B1860704700BF00040E404FF48073B3
:104B400003FA00F0014B5860704700BF00040E40AC
:104B5000C369490201F4F05141F0B44141F480715C
:104B600023F4F0531943C1617047FEE700B583B0E9
:104B70002A4B2B4A9A4210D02A4B284A9A420CD2EE
:104B8000013B9B1A23F0030304331344244951F8D7
:104B9000040B42F8040B9A42F9D1234B234A9A4260
:104BA0000AD2013B9B1A23F0030304331344002170
:104BB00042F8041B9342FBD11D4A22F07F011D4B9A
:104BC0009960EFF31083B3FA83F35B09019372B634
:104BD000BFF35F8F0021184B1970019817490B68BC
:104BE00043F470030B60BFF34F8FBFF36F8F28B197
:104BF0000121114B1970BFF35F8F62B602F1604261
:104C0000B2F5203F04D20B4A936843F000539360FF
:104C10000B4B98470B4B9847FEE700BF0000002066
:104C20000CFD4000280D002078220220280D0020D5
:104C30000000400000ED00E00103002088ED00E0EE
:104C40000D7B4000D96A4000314B1B6B03F003031E
:104C5000012B1DD083B1022B36D02D4B1B6B03F0E3
:104C60007003702B4BD02A4B1A6B2A49C2F30212E5
:104C70000B68D3400B607047274B5B6913F0800FC4
:104C800014BF4FF400424FF4FA42224B1A60E4E79B
:104C90001F4B1B6A13F0807F03D0204A1D4B1A6004
:104CA000DBE71F4A1B4B1A60194B1B6A03F07003AA
:104CB000102B05D0202BD0D11A4A164B1A60CCE706
:104CC000194A144B1A60C8E7134B5B6913F0800F45
:104CD00014BF4FF400424FF4FA420E4B1A600C4BD3
:104CE0001B6B03F00303022BB7D1094B9A6A0949E6
:104CF000C2F30C420B6802FB03330B60ADE7054ABD
:104D000013680A49A1FB03135B081360704700BFD7
:104D100000040E400403002010140E40001BB700D6
:104D200000127A0000366E010024F400ABAAAAAA91
:104D3000124B984211D9124B984213D9114B9842F9
:104D400014D9114B984215D9104B984294BF4FF08B
:104D500004220F4A0F4B1A6070474FF080620D4BD0
:104D60001A6070470C4A0B4B1A6070470B4A094B8C
:104D70001A6070470A4A074B1A607047FF2C3101CE
:104D8000FF596202FF869303FFB3C404FFE0F505F9
:104D900000050004000A0E400001000400020004A7
:104DA000000300040A4B1B6853B1094B1B681A1817
:104DB0000849914208DB1046054A106018467047C2
:104DC000054A034B1A60F0E74FF0FF30704700BF11
:104DD00088400120FC7F0220785202204FF0FF30F3
:104DE00070474FF400534B6000207047012070471C
:104DF0000020704700BEFEE708B5024B9847024B03
:104E0000984708BDB11F4000493040002DE9F047E8
:104E10008EB00120404B98470DF10E003F4B984754
:104E200040B33F4B98470222052110463D4CA04716
:104E3000022205210120A047022205210020A047CF
:104E400000210220384B98470220384B9847002019
:104E5000374B98470020374B9847374B9847374890
:104E6000374B984700242646364FDFF8F880DFF8A6
:104E7000F8902EE0BDF80E103348344B9847344B71
:104E8000186842685368013B5360002B07DB426897
:104E90001368013313602F48294B9847C1E74168D5
:104EA0002D4B9847F7E70DF1360500950DF12203DC
:104EB00007AA0DF1160104A8DFF8B0A0D0470095AD
:104EC0000DF1220307AA0DF1160104A8234DA847EE
:104ED0000134B847C8B988FB0423E217C2EB631357
:104EE000642202FB1343632BDDD10136734206F0CB
:104EF000070603F0070358BF5E4209EB46035978E3
:104F000019F81600084B9847CDE715480C4B984701
:104F10000EB0BDE8F08700BFF94D4000F52140001C
:104F2000B5304000F5224000E5204000452140001A
:104F3000713D40004D294000F929400040EC4000FF
:104F4000F17D40006920400060EF40002D7D400071
:104F5000780300209CEF4000017E40005D2C400063
:104F6000A8EF40001F85EB510C03002021224000D8
:104F700038B50C46154601461448154B984735B9C7
:104F80001448154B98473CB1012C08D038BD294630
:104F900012480F4B9847F3E70020114B98471148F0
:104FA0000B4B9847104B186842685368013B53609D
:104FB000002B07DB42681368013313600B48064B74
:104FC0009847E3E741680A4B9847F7E7A8F940009C
:104FD0002D7D400040EC4000F17D4000ACF94000E8
:104FE000ED7A4000BCF9400078030020D0F9400081
:104FF000017E400010B50A4658B10C4C0C492046C1
:105000000C4B98470022022120460B4B9847012069
:1050100010BD064C09492046064B98470022022144
:105020002046054B9847002010BD00BFACA00120D2
:105030006CF64000D57F4000714F400058F64000AC
:105040002DE9F04F83B0834600238DF807303D49AA
:1050500080B23D4B984700286FD00BF1FF3B0026F4
:10506000DFF81881DFF81891DFF818A147E037481A
:10507000374B98471BE021465046364B984716E081
:1050800001A8354B984726E00134B4F5803F34D071
:105090004FF6FF739C42EAD089FB0423E217C2EB70
:1050A000633344F6206202FB1343012BE3D041F249
:1050B00034211B20294FB84745F278611720B847A3
:1050C00002A901F8010D1720254B984728809DF86B
:1050D0000730002BD4D12B8845F278629342D3D08D
:1050E000224620494046204FB8470136F6B23246A4
:1050F000022140461D4B9847C6E70BF1FF3BBBF131
:10510000FF3F0CD05A461A494046174B9847002299
:1051100002214046154B98470024164DB8E776B952
:105120009DF80720002A14BF0121022112480F4BCD
:105130009847B0B203B0BDE8F08F0020FAE73246DE
:105140000121F3E700F54000F54F400018F540005D
:10515000F17D40002D7D4000F52140008D3C400058
:10516000AD3C400044F54000D57F4000714F400009
:105170000CF5400010A101205CF54000ACA001201E
:10518000AD8BDB6830F540002DE9F04184B0064678
:105190000C4600238DF80F302449A0B2244B9847C9
:1051A000002841D0002C31DBDFF8A880214D224FB0
:1051B00003E0013CB4F1FF3F28D022464146284697
:1051C000B8470022022128461C4B984741F234215F
:1051D00017201B4B98470DF10F010B20194B9847D7
:1051E00082B2194B1A80B242E3D00096134622468F
:1051F00016492846B8479DF80F200132D2B28DF8E3
:105200000F20022128460D4B9847D2E79DF80F202A
:10521000002A14BF012102210D48084B98479DF830
:105220000F0004B0BDE8F0810020FAE774F54000FB
:10523000F54F4000ACA00120D57F4000714F4000E9
:105240008D3C4000AD3C400010A101208CF5400099
:10525000C4F5400080F540002DE9F0472DED048BAA
:1052600086B005464C4980B24C4B9847002800F068
:105270009180002D00F08B800026494CDFF838919A
:10528000484F21E0DFF83481C047CDE90401DFF861
:1052900030A119EE100AC047CDE9020118EE100A3C
:1052A000C047CDE90001DDE904233F495046DFF85E
:1052B0001481C0470136B6B23246022150463B4BFC
:1052C00098472DE0013D54D02046C847B4F900006E
:1052D000DFF8F480C04708EE100AB4F90200C047B6
:1052E00007EE900A78EE677A17EE900ADFF8DCA0F6
:1052F000D04708EE100AB4F90400C047F3EE097A6B
:1053000007EE100A77EE677A17EE900AD04708EE9C
:10531000900A97ED009AF4EEC98AF1EE10FAB1DC2A
:1053200097ED009AB4EEC98AF1EE10FACADDDFF803
:105330008C8018EE900AC047CDE90401DFF880A008
:1053400019EE100AC047CDE9020118EE100AC04755
:10535000CDE90001DDE9042315495046DFF86480FA
:10536000C0470136B6B23246022150460F4B98472D
:10537000A8E7002E14BF0121022132460D480B4B35
:105380009847304606B0BDEC048BBDE8F087002698
:105390000221F2E70026F4E778F44000F54F4000E0
:1053A0000CA201204403002088F44000714F40000B
:1053B000C0F44000ECF440006D214000A16F4000BB
:1053C000ACA00120D57F4000ED244000C52F400057
:1053D0002DE9F04F2DED048B8FB007467A4980B24E
:1053E0007A4B984730B9002630460FB0BDEC048B9D
:1053F000BDE8F08F0DF132020DA90DF13600744BAE
:105400009847BDF83430BDF83620B3FBF2F309EE0F
:10541000103A002FC0F2CE8000266E4B9C1F04F184
:105420001203DFED6D9A9FED668B0596984681E03D
:10543000013DB5F1FF3F33D000260096334632469A
:1054400064492046654FB847009633463246414688
:1054500004F10C00B84720460DF1240E06AE04F10D
:10546000060C07460230B0F91020B0F90430D11A0A
:10547000B7F90C30B7F900209B1A002BB8BF5B427C
:10548000DEF8002013444EF8043B81EAE172A2EBFF
:10549000E1723368134446F8043B6045E1D1C7E745
:1054A0004F460025DFF87091DDF814A002E00135C9
:1054B000032D37D009AB53F8253007EE103AB8EE7C
:1054C000C77A06AB53F8253007EE903AF8EEE77A44
:1054D000C7EE276AB8EEC97AC6EE877AB7EE007AC9
:1054E00077EE677A17EE900AC84707EE900AF4EE57
:1054F000E97AF1EE10FADADD0AF101061FFA86FA0E
:10550000374E8DED028B374B9847CDE90001364A77
:1055100036493046364B9847524602213046354B85
:105520009847C4E75346CDF814A0ABB9013FB7F193
:10553000FF3F35D039463048304B9847002306931B
:10554000099307930A9308930B932D4BB3F90050DB
:10555000002DA6DBB9466FE72A482B4B98472B480E
:10556000264B984709AD0DF1300BDFF8B0A0DFF8FE
:105570008C9055F8041B5046C8475D45F9D1244826
:105580001E4B984706AD0DF1240BDFF890A0DFF815
:105590006C9055F8041B5046C8475D45F9D1C5E7E6
:1055A000059E002E14BF0121022132461948114BDD
:1055B000984719E700260221F7E700BFAFF3008004
:1055C000000000E051B88E3FA0F24000F54F4000CF
:1055D0009920400012A201208FC2753C2122400078
:1055E000ACA00120A16F4000D4F240000CF34000B9
:1055F000D57F4000714F4000B4F240002D7D400047
:105600000803002028F34000F17D40003CF34000F7
:105610004CF3400054F34000C52F400044F34000D9
:1056200000B583B0094B03EB4002517813F810002A
:10563000074B9847002201A90DF10600054B98473A
:105640000548064B984703B05DF804FB240300208F
:10565000E5204000992040003B281A00010000206E
:105660002DE9F04F2DED028B8BB08246019200297F
:105670003CD0084640F60103019D9D4220DC684B6A
:10568000B1F9002043F8252005F60102B0F9021017
:1056900043F8221005F580520232B0F9041043F8A5
:1056A0002210002D40F09A805E4B1D605E4BB0F9D9
:1056B00000201A60B0F902205A60B0F904209A6004
:1056C0000023CAF800300023CAF80430CAF80830B2
:1056D000CAF80C30CAF81030CAF81430CAF81830BA
:1056E00050460BB0BDEC028BBDE8F08F40F60108D0
:1056F0009045A8BF90464C4B04AF03F10C013A46CD
:1057000007EE908AF8EEE76AF3EC017AF8EEE77AB2
:1057100087EEA67AA2EC017A8B42F5D107AB029311
:105720004FF0000B9FED418ADFF80891CDF80CA0F7
:105730009A4656468AED008AB8F1000F1CDDABF19F
:105740000405374B1D44002455F8043F07EE903AFA
:10575000F8EEE77A97ED007A77EEC77A17EE900ABF
:10576000C847D6ED007A07EE100A77EE877AC6EDC5
:10577000007A0134A045E7D10AF1040A04370BF599
:10578000005B0BF1040B46F20C039B45D1D1DDF815
:105790000CA00AABDDED017AF8EEE76A029A92ED11
:1057A000007AC7EE267AE2EC017A9A42F7D11D4BD5
:1057B0001B68CAF80030049BCAF80430059BCAF87D
:1057C0000830069BCAF80C30079BCAF81030089BBB
:1057D000CAF81430099BCAF8183081E7114B1D68CC
:1057E000841E134E1049071D34F9022F36F9023B6F
:1057F000D31A002BB8BF5B421D440B68134441F819
:10580000043BBC42F0D1074B1D60B0F90020084BAF
:105810001A80B0F902205A80B0F904209A804FE72C
:105820009440012090400120A0A001200000000031
:1058300028A10120C52F400084B02DE9F04F2DEDA7
:10584000088B97B028AC84E80F009DF8BCB09DF899
:10585000C040299DDDF8A8A0DDF8AC90DDF8B0804F
:105860002D9F2E9E002215A90DF156005C4B9847E6
:10587000002212A90FA85B4B9847BBF1000F42D042
:1058800014990CA8584B9847DDED287AF8EE677A02
:105890009DED317AB8EE477A87EE87BA21462846E1
:1058A000524DA8479FED528A07EE900A67EE888A0C
:1058B00021465046A84707EE900A27EE889A2146CF
:1058C0004846A84707EE900A67EE889A2146404668
:1058D000A84707EE900A27EE88AA21463846A8472F
:1058E00007EE900A67EE88AA21463046A84707EEE1
:1058F000900A27EE888ABDF856103E483E4CA047D5
:105900003E48A0473BE011990CA8374B9847DDED86
:10591000287AB8EE677ADDED317AF8EE677A87EEAD
:1059200027BA2846364CA0479FED318A07EE900AE9
:1059300067EE888A5046A04707EE900A27EE889ABD
:105940004846A04707EE900A67EE889A4046A0476F
:1059500007EE900A27EE88AA3846A04707EE900A7D
:1059600067EE88AA3046A04707EE900A27EE888A9D
:10597000BDF854101F48204CA0472248A047224C95
:105980001BEE100AA04706460F4618EE100AA04765
:10599000CDE90A011AEE900AA047CDE908011AEEF6
:1059A000100AA047CDE9060119EE900AA047CDE9FB
:1059B000040119EE100AA047CDE9020118EE900A81
:1059C000A047CDE9000132463B460CA90F480A4CDE
:1059D000A04717B0BDEC088BBDE8F04F04B070478E
:1059E000992040008D224000218040003D2440004D
:1059F00000007A44D8F540002D7D4000ECF54000D1
:105A0000BD244000F4F54000A16F4000FCF54000CB
:105A10002DE9F04F93B004460890464980B2464BBA
:105A2000984730B1002C24DA002202214348444B2D
:105A30009847002013B0BDE8F08F524608994148BE
:105A4000414B984745E0099B01330993042B0AD049
:105A500009983E4B98473E4F4FF0000A54463D4E42
:105A60003D4DB94632E0089B013B0893B3F1FF3F3F
:105A7000DAD0089A394981FB02131146D217C2EBDA
:105A800063131A466423104603FB10130793002385
:105A90000993DFF8DCB0DBE70BAF4FF47A722146F5
:105AA0003846A8474FF47A7305930494012303936F
:105AB00012AB13E907008DE8070097E80F00284FA5
:105AC000B8470AF1010ABAF1060FBCD0079B632B55
:105AD000B3D0CDF81890DFF89C8099F8002098F8A2
